:1000000010600320D97400007F770300C5740000DE
:10001000C5740000C5740000C5740000C5740000FC
:10002000000000000000000000000000F575000066
:10003000C57400000000000089750000C574000050
:1000400009780000097800000978000009780000AC
:10005000097800000978000009780000097800009C
:10006000097800000978000009780000097800008C
:10007000097800000978000009780000097800007C
:10008000097800000978000009780000097800006C
:10009000097800000978000009780000097800005C
:1000A000097800000978000009780000097800004C
:1000B000097800000978000009780000097800003C
:1000C000097800000978000009780000097800002C
:1000D000097800000978000009780000097800001C
:1000E000097800000978000009780000097800000C
:1000F00009780000097800000978000009780000FC
:1001000009780000097800000978000009780000EB
:1001100009780000097800000978000009780000DB
:1001200009780000097800000978000009780000CB
:1001300009780000097800000978000009780000BB
:1001400009780000097800000978000009780000AB
:04015000097800002A
:04015400FFFFFFFFAB
:100158007BB972B90029BEBF00204FF0004106E00C
:1001680008BF00281CBF6FF000414FF0FF3000F0BF
:1001780057B8ADF1080C6DE904CE002909DB002B56
:100188001ADB00F04FF8DDF804E0DDE9022304B0E3
:100198007047404261EB4101002B1BDB00F042F845
:1001A800DDF804E0DDE9022304B0404261EB4101DF
:1001B800524263EB43037047524263EB430300F040
:1001C80031F8DDF804E0DDE9022304B0404261EBD8
:1001D80041017047524263EB430300F023F8DDF816
:1001E80004E0DDE9022304B0524263EB43037047A5
:1001F80053B94AB9002908BF00281CBF4FF0FF3186
:100208004FF0FF3000F00CB8ADF1080C6DE904CEEA
:1002180000F008F8DDF804E0DDE9022304B07047D7
:10022800704700BF2DE9F04786468C460846089E71
:10023800154674461946002B40F0C1808542B2FA33
:1002480082F245D94AB1C2F1200300FA02FC954076
:1002580094402EFA03F343EA0C0C4FEA154EA8B269
:10026800230CBCFBFEF80EFB18CC08FB00F943EA94
:100278000C43994528D9EB1808F1FF3704D2994562
:1002880002D9A8F102072B44A3EB0903A4B2B3FBDC
:10029800FEFC0EFB1C330CFB00F044EA0344A042B6
:1002A80014D92C190CF1FF3304D2A04202D9ACF1B5
:1002B80002032C44241A43EA07401EB1D440002309
:1002C80034607360BDE8F0874746DDE76346F1E7D1
:1002D80092BB431B01214FEA154EAFB2200CB3FB72
:1002E800FEFC0EFB1C330CFB07F840EA0343984561
:1002F80061D9EB180CF1FF3004D2984502D9ACF162
:1003080002002B44A3EB0803A4B2B3FBFEFC0EFBD4
:100318001C330CFB07F744EA0344A7424DD92C19B8
:100328000CF1FF3304D2A74202D9ACF102032C44EA
:10033800E41B43EA0040C0E7C2F120039540944023
:1003480020FA03F12EFA03F34FEA154E9040AFB2AC
:100358000343B1FBFEFC0EFB1C10190C0CFB07F849
:1003680041EA0041884522D969180CF1FF3004D2CE
:10037800884502D9ACF102002944A1EB08019BB2DF
:10038800B1FBFEFC0EFB1C110CFB07F743EA014313
:100398009F420ED9EB180CF1FF3104D29F4202D9CB
:1003A800ACF102012B44DB1B41EA004193E76046B4
:1003B800E3E76146F7E76046A4E76346B8E78342A8
:1003C80006D916B9002108467CE7C6E900E0F9E736
:1003D800B3FA83F78FB9834201D3724508D8BEEBCD
:1003E800020460EB030301209C461EB9002169E763
:1003F8003846FAE7C6E9004CF8E7C7F1200CBB40DD
:100408000EFA07F522FA0CF42EFA0CF1BA401C4346
:1004180020FA0CF3B8404FEA144901431FFA84FE4E
:10042800B3FBF9F809FB18300B0C08FB0EFA43EA8A
:1004380000439A4540D9E31808F1FF3004D29A45A1
:1004480002D9A8F102002344A3EB0A0389B2B3FB43
:10045800F9F809FB183308FB0EFE41EA03418E4503
:100468002CD9611808F1FF3304D28E4502D9A8F1BE
:100478000203214443EA0040A1EB0E01A0FB0298CD
:100488004145CE46434602D306D14D4504D20138F4
:10049800B9EB020E68EB0403002EA7D0B5EB0E02F1
:1004A80061EB030101FA0CFC22FA07F3F9404CEA6C
:1004B8000303C6E9003199E74046C5E74346D9E753
:1004C80010F8012B11F8013B012A28BF9A42F7D0F6
:1004D800D01A7047034611F8012B03F8012B002AA4
:1004E800F9D17047034613F8012B002AFBD1181ADB
:1004F80001387047000000002DE9F04F8FB00B90D5
:100508000D4617464DF004FD4B0143EAD063440104
:10051800241A63EB01039B0043EA9473A400241894
:1005280043EB0101C90041EA5471C4F3103444EAB1
:1005380041444FEAD138012D68D07D6829464048AA
:10054800FFF7BEFF28B129463E48FFF7B9FF00284C
:1005580066D139A3D3E9002320464146FFF7F8FDC9
:100568000C900E4634A3D3E9002320464146FFF7FA
:10057800EFFD15461C46344A002328462146FFF75E
:10058800E7FD07460D91304A002328462146FFF72C
:10059800DFFD15461C464EF66022002328462146FC
:1005A800FFF7D6FD814688464EF66022002328468E
:1005B8002146FFF7CDFD15461C464FF47A720023FD
:1005C80028462146FFF7C4FD83468A464FF47A72CF
:1005D800002328462146FFF7BBFDCDE90823CDF8C7
:1005E80018B0CDF81CA0CDF81090CDF81480029763
:1005F8000D9B03930C9B00930196144A08210B98BA
:1006080036F036F800200FB0BDE8F08F0094CDF832
:1006180004800F4A08210B9836F02AF80020F2E7E8
:100628002B460C4A01210B9836F022F86FF0040093
:10063800E9E700BFAFF30080005C2605000000007A
:1006480058FA04005CFA040080EE360080FA0400D0
:1006580044FA040068FA0400F0B583B000AF7F499B
:100668007F4837F0D6FB80B104467E4B1B6813F0F9
:10067800070F03D120460C37BD46F0BD03467A4A22
:100688000121784835F034FAF4E77849744837F0AE
:10069800C0FB044658B1734B1B6813F0070FE9D031
:1006A8000346734A01216F4835F022FAE2E771499F
:1006B8006B4837F0AEFB044658B16A4B1B6813F021
:1006C800070FD7D003466C4A0121664835F010FA67
:1006D800D0E76A49624837F09CFB044658B1614B41
:1006E8001B6813F0070FC5D00346654A01215D4812
:1006F80035F0FEF9BEE76349594809F069FF044639
:1007080060B9614D614B9D426FD2012269685448BE
:100718000AF06CF8044668B91035F3E7514B1B68CA
:1007280013F0070FA6D00346594A01214D4835F06A
:10073800DFF99FE74B4B1B6813F0070F9AD06968E6
:100748006E4600233B7102237B718AB06D4615F11A
:10075800100215D012201AB1042801DD4D4B6B612F
:1007680000233B7002237B70BAB10346082800DDE2
:10077800A9610C2B00DDEC6105F1200300210AE0E2
:100788006FF00040E7E701F1080CBC441CF808CC06
:1007980003F801CB01310129F5D9112822DD1223F3
:1007A80042B10421397100217971B9710121F971BE
:1007B8007868286100216FF300016FF341016FF33E
:1007C80082016FF3C501012060F38811C3F30A03A6
:1007D80063F353216FF31F510023224803F0E0FA1B
:1007E800B54647E76FF01B03DAE700231A461946B8
:1007F8001B4837F04BFA044660B11A4B1B6813F0DC
:10080800070F3FF437AF0346234A0121154835F057
:100818006FF92FE7124808F087FB044658B1114BCF
:100828001B6813F0070F3FF425AF1C4A01210D4840
:1008380035F054F91EE70A4808F0C2FB04460028C0
:100848003FF418AF074B1B6813F0070F3FF412AFC4
:10085800134A0121034835F041F90BE790000020C5
:10086800B80F0020E00C002098EF04006000002082
:10087800C8EF040038000020FCEF04001C00002032
:100888002CF0040000000020181000204810002060
:1008980054F0040078F0040094F00400B4F004006C
:1008A800D8F0040008B5084B1A6802F00702022ABB
:1008B80002D8064B186808BD0B46054A03210248B2
:1008C80035F016F9F5E700BFD40C002098A00020F9
:1008D8000CF104001346304A106800F007000228A3
:1008E80059D9F0B583B000AF8C466C4600223A71F6
:1008F80002227A7188B0EE461EF1100214D00E253D
:1009080022B1042D02DD2549CEF8141000213970DA
:1009180002217970AAB1082D02DD2149CEF81810FC
:100928000EF11C0000210AE06FF00045E8E701F134
:1009380008063E4416F8086C00F8016B01310129DD
:10094800F5D90D2D24DD0E254AB103213971002179
:100958007971B9710121F9717868CEF81000002118
:100968006FF300016FF341016FF382016FF3C5016B
:10097800032060F38811C5F30A0565F353216CF36E
:100988001F51054803F00CFAA5460C37BD46F0BDCB
:100998006FF01B05D8E77047D40C0020E050050025
:1009A8001CF10400314B1B6803F00703022B5CD9D0
:1009B80090B583B000AFF1B92D496C4600233B7167
:1009C80002237B7188B0EC461CF1100215D00E2072
:1009D80022B1042802DD274BCCF8143000233B70E9
:1009E80002237B70B2B1082801DDCCF818100CF195
:1009F8001C0300210CE02049DFE76FF00040E7E727
:100A080001F1080EBE441EF808EC03F801EB0131B1
:100A18000129F5D90D2825DD0E234AB103213971A5
:100A280000217971B9710121F9717868CCF8100049
:100A380000216FF300016FF341016FF382016FF33F
:100A4800C501032060F38811C3F30A0363F353213C
:100A58006FF31F510023054803F0A2F9A5460C3790
:100A6800BD4690BD6FF01B03D7E77047D40C00203C
:100A780024F1040044F1040034F10400364B1B68EF
:100A880003F00703022B65D9B0B582B000AF31B3CC
:100A980032496C4601233B7103237B718AB0EE46D1
:100AA8001EF110021DD04FF0120C52B16346BCF17A
:100AB800040F02DD2A4DCEF81450082B01DDCEF8C4
:100AC800180001233B7003237B70BAB1BCF10C0FF3
:100AD80001DDCEF81C100EF1200300210CE02149A5
:100AE800D7E76FF0004CE0E701F10800384410F850
:100AF800080C03F8010B01310129F5D9BCF1110FDC
:100B080025DD12234AB10421397100217971B971A7
:100B18000121F9717868CEF8100000216FF3000107
:100B28006FF341016FF382016FF3C501032060F396
:100B38008811C3F30A0363F353216FF31F51002392
:100B4800054803F02DF9A5460837BD46B0BD6FF03E
:100B58001B03D7E7704700BFD40C00202C2A0500E0
:100B680068F104005CF1040010B582B01446094B2A
:100B78001A6802F00702022A03D8074B1C6002B069
:100B880010BD00940B46054A0321024834F0BBFF10
:100B9800F3E700BFD40C002098A0002088F10400DF
:100BA80010B514484CF062FC48B1134B3F2213496E
:100BB800104838F055FA044678B9204610BD104B55
:100BC8001B6813F0070F02D16FF00404F5E70D4A14
:100BD80001210B4834F082FFF6E7094B1B6813F03C
:100BE800070FEAD00346084A0121054834F080FF80
:100BF800E3E700BFC8E70400B800002020EF0400C6
:100C0800D40C00209CF10400B4F1040008B5084B92
:100C18001A6802F00702022A02D8064B186808BDB3
:100C28000B46054A0321024834F062FFF5E700BF8E
:100C3800DC0C00209CA000200CF10400314B1B6848
:100C480003F00703022B5CD990B583B000AFF1B96C
:100C58002D496C4600233B7102237B7188B0EC461A
:100C68001CF1100215D00E2022B1042802DD274BFA
:100C7800CCF8143000233B7002237B70B2B10828F3
:100C880001DDCCF818100CF11C0300210CE0204900
:100C9800DFE76FF00040E7E701F1080EBE441EF8F9
:100CA80008EC03F801EB01310129F5D90D2825DD00
:100CB8000E234AB10321397100217971B9710121DB
:100CC800F9717868CCF8100000216FF300016FF318
:100CD80041016FF382016FF3C501032060F38811AE
:100CE800C3F30A0363F353216FF31F51002305482D
:100CF80003F056F8A5460C37BD4690BD6FF01B03B0
:100D0800D7E77047DC0C002024F1040044F104000C
:100D180034F10400F0B583B000AF1C46544B1B6897
:100D280003F00703022B3FD96E468AB06B4613F1D6
:100D3800100C5ED01420BCF1000F0FD0054604281B
:100D480003DDDFF830E1C3F814E0082D00DD996118
:100D58000C2D00DDDA61102D00DD1C6213284BDD3F
:100D68001425BCF1000F07D005223A7100227A71D0
:100D7800BA71FA717868186100216FF300016FF396
:100D880041016FF382016FF3C501032363F38811F7
:100D9800C5F30A0565F353216FF31F51002362461B
:100DA800334802F0FDFFB546314B1A6802F00702DE
:100DB800022A56D96D4600233B7102237B7188B005
:100DC800EC461CF110021AD00E2022B1042802DDD4
:100DD800294BCCF8143000233B7002237B70DAB126
:100DE800082802DD254BCCF818300CF11C01002333
:100DF80010E06FF000409EE76FF01B05B1E76FF061
:100E08000040E2E703F108063E4416F8086C01F8D2
:100E1800016B0133012BF5D90D2826DD0E234AB1CC
:100E28000321397100217971B9710121F97178684B
:100E3800CCF8100000216FF300016FF341016FF34C
:100E480082016FF3C501032060F38811C3F30A031D
:100E580063F3532164F31F513B6A054802F0A0FF76
:100E6800AD4600200C37BD46F0BD6FF01B03D6E73A
:100E7800DC0C0020ECF10400E050050000F2040056
:100E88002DE9F04184B002AF06460C461546314BB9
:100E98001B6803F00703022B4DD9E84600233B717A
:100EA80002237B7188B002A911F1100212D00E2022
:100EB8001AB1042801DD284B4B6100233B70022343
:100EC8007B70A2B1082801DD244B8B6101F11C0C59
:100ED80000230AE06FF00040EAE703F1080EBE4481
:100EE8001EF808EC0CF801EB0133012BF5D90D289D
:100EF8002CDD0E2342B10320387100207871B871BF
:100F08000120F8717868086100216FF300016FF320
:100F180041016FF382016FF3C501032060F388116B
:100F2800C3F30A0363F3532164F31F512B460948A3
:100F380002F036FFC54600952346002202213046BE
:100F4800FFF7E8FE0837BD46BDE8F0816FF01B03E8
:100F5800D0E700BFDC0C0020E05005001CF10400C5
:100F6800F0B583B000AF1C46544B1B6803F0070371
:100F7800022B3FD96E468AB06B4613F1100C5ED037
:100F88001420BCF1000F0FD00546042803DDDFF85C
:100F980030E1C3F814E0082D00DD99610C2D00DD67
:100FA800DA61102D00DD1C6213284BDD1425BCF11D
:100FB800000F07D005223A7100227A71BA71FA71CE
:100FC8007868186100216FF300016FF341016FF336
:100FD80082016FF3C501032363F38811C5F30A0582
:100FE80065F353216FF31F5100236246334802F023
:100FF800D7FEB546314B1A6802F00702022A56D9C5
:101008006D4600233B7102237B7188B0EC461CF1CE
:1010180010021AD00E2022B1042802DD294BCCF888
:10102800143000233B7002237B70DAB1082802DDFC
:10103800254BCCF818300CF11C01002310E06FF0A0
:1010480000409EE76FF01B05B1E76FF00040E2E754
:1010580003F108063E4416F8086C01F8016B0133E9
:10106800012BF5D90D2826DD0E234AB1032139714C
:1010780000217971B9710121F9717868CCF81000F3
:1010880000216FF300016FF341016FF382016FF3E9
:10109800C501032060F38811C3F30A0363F35321E6
:1010A80064F31F513B6A054802F07AFEAD46002002
:1010B8000C37BD46F0BD6FF01B03D6E7DC0C0020F3
:1010C80008F20400E050050000F20400364B1B68EB
:1010D80003F00703022B65D9B0B582B000AF31B376
:1010E80032496C4601233B7103237B718AB0EE467B
:1010F8001EF110021DD04FF0120C52B16346BCF124
:10110800040F02DD2A4DCEF81450082B01DDCEF86D
:10111800180001233B7003237B70BAB1BCF10C0F9C
:1011280001DDCEF81C100EF1200300210CE021494E
:10113800D7E76FF0004CE0E701F10800384410F8F9
:10114800080C03F8010B01310129F5D9BCF1110F85
:1011580025DD12234AB10421397100217971B97151
:101168000121F9717868CEF8100000216FF30001B1
:101178006FF341016FF382016FF3C501032060F340
:101188008811C3F30A0363F353216FF31F5100233C
:10119800054802F005FEA5460837BD46B0BD6FF00C
:1011A8001B03D7E7704700BFDC0C00202C2A050082
:1011B80068F104005CF1040010B582B01446094BD4
:1011C8001A6802F00702022A03D8074B1C6002B013
:1011D80010BD00940B46054A0321024834F093FCE5
:1011E800F3E700BFDC0C00209CA0002088F104007D
:1011F80010B514484CF03AF948B1134B2122134961
:10120800104837F02DFF044678B9204610BD104B22
:101218001B6813F0070F02D16FF00404F5E70D4ABD
:1012280001210B4834F05AFCF6E7094B1B6813F010
:10123800070FEAD00346084A0121054834F058FC54
:10124800E3E700BFB4E70400DC00002060EF04001F
:10125800DC0C00209CF10400B4F1040008B5002265
:101268008260034A0261034AC26007F0F9FB08BDC5
:10127800A0A000202CF204002DE9F04184B000AFBA
:1012880003460020586107F10C0103F077F8044683
:101298004E4B1B6803F00703022B67D9FB68D3F892
:1012A80004E0DA6811689E686D4602233B720423E5
:1012B8007B728CB0EC461CF1100224D01A2082B14B
:1012C8000346042803DDDFF80881CCF81480082BD6
:1012D80003DD4FF00008CCF818800C2B01DDCCF8AA
:1012E8001CE002233B7104237B71D2B10346102812
:1012F80001DDCCF82010142B01DDCCF824600CF1B2
:10130800280300210BE06FF00040D8E701F1100638
:1013180006EB070E1EF80CEC03F801EB013101296E
:10132800F4D9192829DD1A234AB106213972002176
:101338007972B9720121F972B868CCF810000021ED
:101348006FF300016FF341016FF382016FF3C50181
:10135800032060F38811C3F30A0363F353216FF387
:101368001F510023194802F01BFDAD46002C07DB76
:1013780020461037BD46BDE8F0816FF01B03D3E768
:10138800124B1B6803F00703022B11D8F868826818
:10139800002134F080FC04460C4B1B6803F0070363
:1013A800022B0BD8002CE3DAF86834F073FCDFE783
:1013B800084A0321054834F091FBE7E70346064A4B
:1013C8000321024834F094FBECE700BFD80C00205E
:1013D80034F2040058F20400981905002DE9F0438E
:1013E800ABB000AF0023C7F8A030C7F8A430A348BB
:1013F800FFF742FF041E34DBA048FFF72FFF041E4F
:101408003FDB40F26760002131F0A8FB9C4B1B6872
:1014180003F00703022B71D9984BD9686E46002355
:101428003B7202237B728AB0EC461CF1100233D067
:10143800122022B1042802DD924BCCF8143000238C
:101448003B7102237B71A2B30346082801DDCCF867
:1014580018100C2B01DDCCF81C400CF120030021E6
:1014680025E0874B1B6813F0070F04D12046AC37E3
:10147800BD46BDE8F083844A0121814834F02EFB43
:10148800F4E77F4B1B6813F0070FEFD07F4A012169
:101498007B4834F023FBE9E76FF00040C9E701F12E
:1014A800A8043C4414F8A44C03F8014B0131012969
:1014B800F5D9112868DD12234AB1042139720021B7
:1014C8007972B9720121F972B868CCF8100000215C
:1014D8006FF300016FF341016FF382016FF3C501F0
:1014E800032060F38811C3F30A0363F353216FF3F6
:1014F8001F510023624802F053FCB54607F19001E2
:101508005E4BD86807F05CFA041E40DB5C4B1B6836
:1015180003F00703022B78D9584BD3F80C90D7F86F
:101528009080D7F894E0D7F898C0D7F89C106E460A
:1015380000233B7202237B728CB06C4614F11002BC
:1015480032D01E201AB1042801DD514B63610023FB
:101558003B7102237B71A2B30346082801DDC4F85E
:1015680018900C2B01DDC4F81C80102B01DDC4F889
:1015780020E0142B01DDC4F824C0182B00DDA16283
:1015880004F12C0300211AE06FF01B0394E73C4B95
:101598001B6813F0070F3FF469AF23463D4A01214A
:1015A800374834F0A5FA61E76FF00040CAE701F167
:1015B800A80CBC441CF8A4CC03F801CB01310129C8
:1015C800F5D91D2853DD1E2342B1072139720021A8
:1015D8007972B9720121F972B868206100216FF33C
:1015E80000016FF341016FF382016FF3C50103201E
:1015F80060F38811C3F30A0363F353216FF31F5198
:1016080000231F4802F0CCFBB5461C4BD96807F1F4
:10161800A00007F0A9F80446194B1B6803F007035C
:10162800022B6AD9154BD9686E4600233B720223F8
:101638007B728AB0EC461CF110021BD0122022B13A
:10164800042802DD144BCCF8143000233B7102232C
:101658007B716AB30346082801DDCCF818100C2BFF
:1016680001DDCCF81C400CF1200300211EE06FF0D6
:101678001B03A9E76FF00040E1E700BFD4A20020F8
:10168800D80C0020A8F2040070F204008CF20400C8
:10169800CCF20400B8F2040008F3040001F1A80E2B
:1016A800BE441EF8A4EC03F801EB01310129F5D979
:1016B80011282FDD12234AB10421397200217972D1
:1016C800B9720121F972B868CCF8100000216FF3E3
:1016D80000016FF341016FF382016FF3C50103202D
:1016E80060F38811C3F30A0363F353216FF31F51A7
:1016F80000235B4802F054FBB546002C5ADA584BDD
:101708001B6813F0070F55D0564A0121544834F08E
:10171800E5F94FE06FF01B03CDE7514B1B6813F061
:10172800070F04D107F1A00007F024F99EE64E4AFE
:1017380001214B4834F0D2F9F4E7494B1B6803F018
:101748000703022BEED9494A0321454834F0C6F96C
:10175800E8E74FF0440E4BE06FF0004C56E00223F0
:101768003B7004237B70002A62D1BCF1150F73DD36
:10177800162342B10520387100207871B871012014
:10178800F871786808616FF300056FF341056FF32E
:1017980082056FF3C505032161F38815C3F30A03B6
:1017A80063F353256FF31F55002329462C4802F095
:1017B800F7FAB546002CB5DB8822002107F10800AE
:1017C8004CF002FF07F1080107F1A00007F04EF8FE
:1017D800041EA2DB7B7A002BAFD0214B1B6803F0E1
:1017E8000703022BE6D93B7A002BB2D14FF0460E05
:1017F800D7F88C006E4602233B7104237B718AB0B4
:10180800694611F11002A7D04FF0160C002AA6D095
:101818006346BCF1040F03DDDFF85480C1F814807F
:10182800082B01DDC1F818E00C2B98DDC86196E79C
:10183800BCF1100F02DD07F109030B6201F124036B
:101848000020012891D800F1A80EBE441EF8A8EC8B
:1018580003F801EB0130F4E76FF01B0389E700BFE1
:10186800D80C002018F3040034F3040058F30400E3
:1018780068F30400F0B583B00F460026009633469F
:101888000A225F2132F068FC04462CF0CDF90546A7
:1018980039462CF09FFE0521284646F00AF82046D6
:1018A8002CF0C2F905460C492CF094FE0521284677
:1018B80045F0FFFF32460321284640F0D3F9802146
:1018C80020463DF002FD02231A46194620461FF025
:1018D8005DFA204603B0F0BDA4F3040030B583B030
:1018E80027F090FA04461F4B1D6827F08BFAA8478B
:1018F8000146204615F004F932F028FC0023009335
:1019080001236422114632F027FC04461649FFF7EA
:10191800B1FF164B1860204632F05DFC144B18607E
:1019280014484BF0A3FD78B100F090FD00F044FEA0
:1019380000F0B2FE00F0F4FE28F016FD0D4832F07B
:10194800FCFB002003B030BD0B4B1B6813F0070FE6
:1019580002D16FF00400F5E7084A0121064834F087
:10196800BDF8F6E700010020B0F30400F8A200205B
:10197800FCA2002054E80400F80B0020BCF304008B
:1019880010B5FFF7ABFF28B928F0EEFC0A2032F0BB
:101998002FFCF9E70446064B1B6813F0070F01D12B
:1019A800204610BD034A0121014834F097F8F7E7B3
:1019B800F80B0020DCF3040038B50C46084640F06C
:1019C80066F9002836D0B54920463DF0E6FE0028E5
:1019D8007AD0204640F05BF90546B1493DF0DDFE7E
:1019E800002835D1284640F052F9AD493DF0D5FEE2
:1019F80000283CD1204640F071F938B9204640F023
:101A080046F9A8493DF0C9FE00283ED1204640F0DD
:101A180065F9012841D0A44D2968002210312046DB
:101A28003FF0FAFE29684FF48032303120463FF00B
:101A3800F3FE55E09C4D0022296820463FF0ECFE5D
:101A480029684FF48032303120463FF0E5FE47E008
:101A5800284646F03FFF944D2968944A20313FF0CC
:101A6800DBFE0022296820463FF0D6FE38E08E4D86
:101A78000022296820463FF0CFFE29684FF48032C3
:101A8800303120463FF0C8FE2AE0874B1968002213
:101A9800183120463FF0C0FE22E0204640F0F7F81B
:101AA80080493DF07AFE0028B5D07F4D2968002294
:101AB800183120463FF0B0FE29684FF480323031AB
:101AC80020463FF0A9FE0BE0794920463DF065FE2F
:101AD80038B1754B19680022203120463FF09CFE32
:101AE80038BD744920463DF058FE70B3204640F09A
:101AF800CEF871493DF051FEA8B9204640F0C7F82C
:101B080067493DF04AFEB8B9674D2968002210318F
:101B180020463FF081FE29684FF4A0221831204664
:101B28003FF07AFEDCE7604B19684FF4A0221831C9
:101B380020463FF071FED3E75B4B19684FF4A022B3
:101B4800183120463FF068FECAE75C4920463DF060
:101B580024FE70B1544D29680022183120463FF008
:101B68005BFE29684FF40032203120463FF054FED6
:101B7800B6E7534920463DF010FEA8B14A4D296802
:101B88000022183120463FF047FE29684FF4003202
:101B9800203120463FF040FE29684FF4403228317A
:101BA80020463FF039FE9BE7464920463DF0F5FDCB
:101BB80078B13D4D29684FF48032303120463FF0EE
:101BC8002BFE29684FF4A022183120463FF024FE4E
:101BD80086E73D4920463DF0E0FD70B1324D296869
:101BE8004FF40032183120463FF016FE2968374A74
:101BF800203120463FF010FE72E7354920463DF07F
:101C0800CCFD70B1284D29680022183120463FF0DC
:101C180003FE29684FF44032283120463FF0FCFD8E
:101C28005EE72C4920463DF0B8FD18B31E4D2968E3
:101C38000022103120463FF0EFFD29684FF4803232
:101C4800303120463FF0E8FD29684FF4A0221831D2
:101C580020463FF0E1FD29684FF4C022203120469C
:101C68003FF0DAFD29684FF4E022203120463FF0AA
:101C7800D3FD35E7184920463DF08FFD70B30A4D76
:101C880029680022183120463FF0C6FD29684FF424
:101C98008022203120463FF0BFFD21E7484405005F
:101CA8007C620500D062050028A300200100050021
:101CB80030A70500DCA705002862050014A7050069
:101CC800E0AC050018AD05002CA8050001000200D5
:101CD800FCAC05002C5B0500C4AC0500B3492046EC
:101CE8003DF05BFD38B1B24B196800221031204637
:101CF8003FF092FDF4E6AF4920463DF04EFDD8B1E5
:101D0800AB4D29680022103120463FF085FD296837
:101D18004FF48032303120463FF07EFD29684FF481
:101D28008022183120463FF077FD2968A24A2031E9
:101D380020463FF071FDD3E6A04920463DF02DFD39
:101D480078B39B4D29680022183120463FF064FD86
:101D580029680022083120463FF05EFD29680022EC
:101D6800383120463FF058FD29684FF400322031C1
:101D780020463FF051FD29684FF4003238312046A3
:101D88003FF04AFD29684FF44032283120463FF0A1
:101D980043FD29684FF44032403120463FF03CFD76
:101DA8009EE6874920463DF0F8FC08B3804D296837
:101DB8000022183120463FF02FFD29680022083103
:101DC80020463FF029FD29680022383120463FF09F
:101DD80023FD29684FF40032203120463FF01CFDD6
:101DE80029684FF40032383120463FF015FD77E678
:101DF800744920463DF0D1FC08B36D4D2968002296
:101E0800183120463FF008FD296800220831204695
:101E18003FF002FD29680022383120463FF0FCFCE3
:101E280029684FF44032283120463FF0F5FC2968F4
:101E38004FF44032403120463FF0EEFC50E6624914
:101E480020463DF0AAFC38B1594B196800221831D8
:101E580020463FF0E1FC43E65C4920463DF09DFC0E
:101E6800A0B1534D29680022103120463FF0D4FC20
:101E780029684FF48032303120463FF0CDFC296884
:101E8800534A483120463FF0C7FC29E651492046CD
:101E98003DF083FC38B1464B1968002218312046C2
:101EA8003FF0BAFC1CE64C4920463DF076FC98B160
:101EB8003F4D0022296820463FF0AEFC29684FF4C8
:101EC800A022103120463FF0A7FC2968434A183168
:101ED80020463FF0A1FC03E6414920463DF05DFC69
:101EE80098B9404920463DF058FC00287FF4F8ADE9
:101EF8003D4920463DF051FCB0B12D4B19680022F8
:101F0800203120463FF088FCEAE5294D2968002267
:101F1800183120463FF080FC29684FF48032303178
:101F280020463FF079FCDBE5304920463DF035FCA2
:101F380098B92F4920463DF030FCB0B11C4D2968B6
:101F48000022183120463FF067FC29684FF4E02250
:101F5800203120463FF060FCC2E5154B196800228D
:101F6800183120463FF058FCBAE5224920463DF09A
:101F780014FC68B10E4D0022296820463FF04CFC45
:101F880029684FF48032303120463FF045FCA7E500
:101F9800194920463DF001FC80B3054B19684FF400
:101FA8008032303120463FF037FC99E57CA90500A6
:101FB80028A3002060A9050001000400F8A6050078
:101FC80060620500485B0500F061050004AE05008D
:101FD80002000700D0560500E85F05000100050073
:101FE80058600500206005003C6005002862050077
:101FF80044620500B4620500986205001149204654
:102008003DF0CBFB70B1104D2968002218312046F5
:102018003FF002FC29684FF44032183120463FF067
:10202800FBFB5DE5094920463DF0B7FB00283FF47E
:1020380057AD054B19680022183120463FF0ECFBDC
:102048004EE500BF485B050028A30020046005009A
:1020580008B5044B1B7813B127F084FE08BD47F080
:10206800D7FCFBE7A2050320F8B59F4C2068303069
:10207800FFF7EEFF2068FF21303047F096FD256816
:10208800122027F04DFA014605F1300047F087FD90
:1020980020680221303047F03AFD2068FFF7D8FF6A
:1020A800FF21206847F081FD2F26002166F30701F4
:1020B8001B2565F30F2165F3174141F07F41206827
:1020C80047F06DFD27680221122027F093FA014698
:1020D800384647F0EEFD20680830FFF7B9FF206862
:1020E8000021083047F061FD20681030FFF7B0FF8D
:1020F8002068FF21103047F058FD2068002166F362
:10210800070165F30F2165F3174141F07F41103056
:1021180047F045FD20680121103047F0ACFD2068EC
:10212800002166F3070165F30F2165F3174141F0BC
:102138007F41103047F0A5FD20680221103047F09C
:10214800A6FD2068002166F3070165F30F2165F3FA
:10215800174141F07F41103047F0A5FD2068183045
:10216800FFF776FF2068FF21183047F01EFD25682D
:102178000221122027F0FAF9014605F1180047F06C
:102188000EFD20680121183047F075FD25680221F1
:10219800122027F0EBF9014605F1180047F071FD10
:1021A80020680221183047F072FD256802211220AC
:1021B80027F0DCF9014605F1180047F074FD2068A6
:1021C8002030FFF745FF2068FF21203047F0EDFC65
:1021D8002568122027F0A4F9014605F1200047F0F0
:1021E800DEFC20680121203047F045FD25681220DB
:1021F80027F096F9014605F1200047F042FD2068D6
:102208000221203047F043FD2568122027F088F985
:10221800014605F1200047F046FD20682830FFF709
:1022280017FF2068FF21283047F0BFFC25680221EE
:10223800122027F0DFF9014605F1280047F0AFFC2E
:1022480020680121283047F016FD25680221122058
:1022580027F0D0F9014605F1280047F012FD206863
:102268000221283047F013FD25680221122027F0AB
:10227800C1F9014605F1280047F015FD20683830FE
:10228800FFF7E6FE20680621383047F000FD206899
:102298004030FFF7DDFE20680521403031F0BEFFF9
:1022A80020684830FFF7D4FE20680421483047F002
:1022B800A0FC25680221122027F09CF9014605F1AF
:1022C800480047F084FC20680221483047F08BFC26
:1022D80020680021483047F068FC20684FF4FA7104
:1022E800483047F016FDF8BD28A30020024B1868B7
:1022F800003818BF01207047F8C1002010B5044607
:10230800FFF7F4FFC0B1124BDC60124A9A61DA6140
:102318001A62114A1A60FFF7A7FE2CB120463BF05B
:1023280005FF0B4B834202D1002018F04BFD0B4BED
:1023380001221A70064810BD084B00221A7050205E
:1023480027F0F2FB064B1860064B1860DBE700BF6E
:1023580000A3002044640500C1190000A205032061
:10236800F8C1002028A30020B0B586B000AF05460C
:102378003BF0A2FF044628463BF09AFF1C2C02D0F3
:102388001837BD46B0BD102207F108012DF020F91D
:102398002C4B1B6803F00703022BF1D96D46002371
:1023A8003B7102237B7188B06C4614F1100213D084
:1023B8000E201AB1042801DD234B636100233B7012
:1023C80002237B70AAB1082802DD07F10803A36184
:1023D80004F11C0300210AE06FF00040E9E701F175
:1023E800180CBC441CF818CC03F801CB01310129A6
:1023F800F5D90D2822DD0E2342B1032139710021C0
:102408007971B9710121F9717868206100216FF340
:1024180000016FF341016FF382016FF3C5010320DF
:1024280060F38811C3F30A0363F353216FF31F5159
:102438000023044801F0B4FCAD46A1E76FF01B038C
:10244800DAE700BF840C00200CF4040010B51B4B25
:102458001B6803F00703022B2AD81949194B18687F
:1024680026F0DEF8044642F25A0242F264013DF0D8
:1024780063FE20462CF0DEFD0446002212492CF0B3
:10248800E5FD0321204649F0F7FD00220121204601
:102498002CF07EFE42F26402114620463DF04CFECE
:1024A80000231A460949204614F0ECFB002010BD11
:1024B800074A0321014833F011FBCEE7840C0020C2
:1024C80044F40400FCA2002048F404007123000036
:1024D80020F40400B0B586B000AF05463BF0ECFE32
:1024E800044628463BF0E4FE1C2C02D01837BD46B3
:1024F800B0BD102207F108012DF06AF82C4B1B68BB
:1025080003F00703022BF1D96D4600233B71022328
:102518007B7188B06C4614F1100213D00E201AB1EA
:10252800042801DD234B636100233B7002237B7089
:10253800AAB1082802DD07F10803A36104F11C030E
:1025480000210AE06FF00040E9E701F1180CBC44F3
:102558001CF818CC03F801CB01310129F5D90D2855
:1025680022DD0E2342B10321397100217971B9713D
:102578000121F9717868206100216FF300016FF380
:1025880041016FF382016FF3C501032060F38811E5
:10259800C3F30A0363F353216FF31F510023044865
:1025A80001F0FEFBAD46A1E76FF01B03DAE700BFC1
:1025B800880C00200CF4040010B51B4B1B6803F0BA
:1025C8000703022B2AD81949194B186826F028F84E
:1025D800044642F25A0242F264013DF0ADFD204643
:1025E8002CF028FD0446002212492CF02FFD03216F
:1025F800204649F041FD0022012120462CF0C8FD6B
:1026080042F26402114620463DF096FD00231A4628
:102618000949204614F036FB002010BD074A032163
:10262800014833F05BFACEE7880C00208CF40400F4
:10263800FCA2002048F40400DD2400006CF404002F
:1026480030B583B005463BF037FE044628463BF0DC
:102658002FFE1C2C01D003B030BD2CF09FFFADF82D
:1026680004000022002301A9084836F0B6FE084BF2
:102678001B6803F00703022BEDD9BDF80430054AA7
:102688000321034833F034FAE5E700BF94ED040072
:102698008C0C0020A4F4040010B51B4B1B6803F03D
:1026A8000703022B2AD81949194B186825F0B8FFD7
:1026B800044642F25A0242F264013DF03DFD2046D2
:1026C8002CF0B8FC0446002212492CF0BFFC032170
:1026D800204649F0D1FC0022012120462CF058FD6B
:1026E80042F26402114620463DF026FD00231A46B8
:1026F8000949204614F0C6FA002010BD074A0321F4
:10270800014833F0EBF9CEE78C0C0020D8F4040034
:10271800FCA20020DCF4040049260000B8F4040000
:1027280010B5134B1B6803F00703022B1AD8114985
:10273800114B186825F074FF044642F25A0242F21F
:1027480064013DF0F9FC20462BF06EFA04460B4973
:102758002BF040FF42F26402114620463DF0ECFCAB
:10276800002010BD064A0321014833F0B7F9DEE71F
:10277800900C00201CF50400FCA2002020F50400A9
:1027880004F5040030B585B004281CDC0446002399
:10279800019302938DF80C3012220C4901A805F020
:1027A800CBFE05460A4B03EB44142046FDF79AFE80
:1027B8000246214601A805F071FF01A805F028FF8F
:1027C800284605B030BD6FF01505F9E740F504005F
:1027D8004401002010B50020FFF7D4FF044608B9D3
:1027E800204610BD054B1B6813F0070FF8D00346B1
:1027F800034A0121014833F07BF9F1E72C0C002052
:1028080054F5040010B504682088FFF7BBFF60B1D9
:1028180003460C4A126812F0070F00D110BD0A4A8D
:102828000121084833F064F9F8E7064B1B6803F008
:102838000703022BF2D92388044A0321014833F005
:1028480057F9EBE72C0C002054F50400A4F404001D
:102858002DE9F04106460F46154600F0ABF8044650
:10286800C3681BB943691A78002A54D10023E3606E
:10287800616857F821306361B14231DA5A1C6261EC
:102888001A782D2A2CD19A1C62615A78A2602D2AB6
:102898002ED04AB9394B63612D2128464BF0C6FD2D
:1028A800002832D02D23A360D4F80880414628465A
:1028B8004BF0BCFDB8F13A0F32D0002830D0437845
:1028C8003A2B38D00023236163691B7813B96368F6
:1028D80001336360204600F053F8A068BDE8F0813A
:1028E800264B6361204600F04BF84FF0FF30F5E7C8
:1028F8009B78002BCDD101316160204B636120466C
:1029080000F03EF84FF0FF30E8E7204600F038F8D6
:102918004FF0FF30E2E75A1C42611B788360C3E73F
:1029280063691B7813B9636801336360204600F05C
:1029380027F83F20D2E763691A7832B123610F4B39
:102948006361636801336360C4E76368013363608C
:10295800B34203DA57F823302361F0E7074B63618A
:102968002B783A2B04D0204600F00AF83F20B5E730
:10297800204600F005F83A20B0E700BF7CFB0400D1
:102988000268074B1A604268064B1A608268064B59
:102998001A60C268054B1A600269054B1A607047D5
:1029A800E0010020DC01002038A3002034A300202F
:1029B80030A3002000487047C40100202DE9F041F1
:1029C80084B0044688468268B2F5004F12D30827BF
:1029D8000837A2EBD7070137B7FA87F7C7F12007FF
:1029E8003B462146554832F066F9554832F063F9BE
:1029F80000262FE00427EBE755880AE0D2689142C9
:102A080012D0013304EBC202A068B0F5004FF3D333
:102A180055684FEA550EBCEB550F00D8F446B0F593
:102A2800004FEBD2D288EAE79BB10122B240B0F561
:102A3800004F1AD3082101F1080002EBD002C1EBC4
:102A4800CC010191CDF800C0013A31463D4832F041
:102A580032F90136BE420ADA331D54F82310002930
:102A6800F7D00A4600239C46CBE70421E3E7B8F1F8
:102A7800000F26D103AA02A9204632F031F8A36834
:102A8800DC00B3F5004F56D308231C440399631A9E
:102A9800029A9B1A60084FF47A7505FB0300B0FB95
:102AA800F4F0294CA4FB0054E40804EB8405A0EBE3
:102AB800450001900094254832F0FDF804B0BDE8C7
:102AC800F081234832F0F7F8002518E073881EE0FB
:102AD8002A225B08B1F5004F29D32158691AE81852
:102AE8000190009129461B4832F0E5F8A368AB42F3
:102AF800C0D0B3F5004F1CD3736805EB5305E8004D
:102B080004EBC506A168B1F5004FDFD3736813F075
:102B1800010FDDD1B1F5004F05D372685208012AC3
:102B280003D02D22D5E72D22D3E72E22D1E7215A33
:102B3800D4E77388E1E70423A7E700BF7CF5040026
:102B4800ACF5040068F60400CDCCCCCCC4F6040087
:102B580084F6040094F604002DE9F04F91B0059234
:102B68000293134602F004020092C3F3C20210F06B
:102B78000303019340F02D8280468A460132041DEA
:102B880000284FD0B8F1000F05D0A4EB0803043398
:102B9800534500F22182029B5D1E019B049306931C
:102BA800039300264FF0FF3B0427B946B8F1000F06
:102BB80001D0029B2360531E0793002A40F35F81D4
:102BC800059B13F0020228D00120A4EB08018B0812
:102BD8001AB1B1F5007F80F0058203990F2900F240
:102BE8000482B8F1000F00F06281DBB201F140020B
:102BF8006A4402F8103C02F820BC002800F0538117
:102C080063F07F0301F140026A4402F8103C049B20
:102C180001330493039B0133039304340022CC460D
:102C280040463DE001F0070A5444CAF1080AA9E702
:102C3800002634E0002632E0002630E00827BC46B3
:102C48002DE025292BD10BF1010B01260427BC46C9
:102C580025E04729EED82A2914D32A39C9B24FF0DA
:102C6800010E0EFA01F14FF6DA7E11EA0E0F16D1B7
:102C780011F0625F40F0C18011F0010F40F08C80CC
:102C880000260CE0252903D10BF1FF3B002606E0C6
:102C980001D9002603E0202901D02329CCD11D46E3
:102CA8006B1C6978002900F01B81002EC9D07A2995
:102CB800BED84C29CDD34C392E2961D80FF2040E39
:102CC8005EF821F0A72C0000892D0000892D000056
:102CD800892D0000892D0000892D0000892D000014
:102CE800892D0000892D0000892D0000892D000004
:102CF800892D0000992D0000892D0000892D0000E4
:102D0800892D0000892D0000892D0000892D0000E3
:102D1800892D0000892D0000032E0000892D000058
:102D2800992D0000992D0000032E0000032E0000AD
:102D3800032E0000A72C0000992D0000452C000050
:102D4800892D0000A72C0000892D00005F2E0000AF
:102D5800992D00005F2E0000892D0000892D0000AC
:102D6800672E0000932D0000992D0000892D00008A
:102D7800892D0000992D0000892D00008D2D00005F
:102D880000268CE70427BC4689E70427BC4686E76B
:102D980029786C2925D000263C44013CB4FBF7F483
:102DA80007FB04F4254620B1211A6144514500F27D
:102DB8001681002A58D1BCF1040F00F08980BCF1BB
:102DC800080F40F015811A99073121F0070101F128
:102DD80008051A95D1E9008908B1C4E900890834C1
:102DE8005DE713F8021C6C2903D000260427BC46B3
:102DF800D2E700260827BC46CEE729784C291AD006
:102E08001A99073121F0070101F108061A96D1E94C
:102E18000067073424F0070440B1211A08315145EE
:102E280013D829784C2913D0C4E900670834002640
:102E38000827BC4633E71A99073121F0070101F149
:102E480008061A96D1E90067E3E76FF01B00BDE0BA
:102E5800C4E90067EAE700260427BC469CE7324637
:102E680000260427BC4697E72C46E14680461A9A76
:102E7800111D1A9112680292079A1D4696E6624B36
:102E8800029A9A4204D3614B9A420AD3002300E083
:102E98000023002B7FF494AE059B03F00202002070
:102EA80093E60123F5E7069B01330693B2E610B1DA
:102EB8000AF1010AAEE6009B13B10AF1020AA9E67B
:102EC8000298FDF70FFB00EB0A0303F1020AA1E6E3
:102ED8001A990D1D1A95096800B121600434DEE6BF
:102EE8008046231AB3F5806F80F0858090B1002268
:102EF80002609B080370009B83B1069BC370049B10
:102F080088F802301BBB019DDDF80C90DDF810B08D
:102F1800029F3DE05344A3F1080057E0069B43702D
:102F2800EDE701339842EED903F140026A4412F802
:102F3800101C12F9102C002AF3DA01F07F01A4EB1F
:102F480008020132524559D804F8011BE9E7019BF0
:102F58000398E7E7009B43B305F140036B4413F87C
:102F6800203C04F8013B019EA4EB080333440133E1
:102F7800534546D805F140036B4413F8103C04F858
:102F8800013B3246394620464BF0F7FA34440135C6
:102F9800A94519D9BBF1000FDCD005F140036B44FA
:102FA80013F9103C002BD5DAF1E705F140036B4427
:102FB80013F8103C58F82370002248F823203846AC
:102FC800FDF790FA461CCFE7A4EB080011B0BDE866
:102FD800F08F6FF00D00F9E76FF01B00F6E76FF068
:102FE8001B00F3E76FF01500F0E76FF01500EDE751
:102FF8006FF01500EAE76FF01500E7E76FF01B00C8
:10300800E4E76FF01B00E1E704E604005CB50500A7
:103018002DE9F04F97B000AF8346BA613B61D7F80E
:103028008030C3F3C0033B62F96011B931F0BBFDD6
:10303800F8609BF80260B14636B1D7F8803013F0DB
:10304800010F0DD1002300E000239BF803207A62D2
:1030580042B1D7F8802012F0020F22D1002202E0FC
:103068000123F2E7002202B9EBB19BF80050AA0055
:10307800BA60DBF804207A610BEB8505BA69F2B116
:10308800002B40F00581B9F1000F00F01081D7F84E
:10309800803013F0040F40F00E810020F8610646DE
:1030A800FAE00122DFE7BB691BB13A69F9685846C3
:1030B8009847FC6820465C37BD46BDE8F08FFC6841
:1030C80053BB4D444FF00008D7F8803003F0050398
:1030D800FB604FF0000AC7F81080A046C7F81CB084
:1030E800D7F804B0BEE00444013501364E45EBD2B2
:1030F8002A7800235BF822201946B86931F068FD68
:10310800BAF1000FEFD0D7F888309845EBD22AF8FB
:10311800180008F10108E6E70026B046D7F884A0B1
:10312800E4E700253B6A7BB9002D7DD0D7F88030D5
:1031380013F0010F7DD1FB68002B73D10223A8EB9C
:1031480003088CE00125EDE74946786931F086FDF2
:103158000028E9D0BB4B1B6813F0060F40D06C4623
:10316800002387F82C30022387F82D308AB069466F
:1031780011F1100237D012251AB1042D01DDB24B1E
:103188004B61002387F82830022387F829306ABB6F
:10319800112D44DD122362B1042087F82C00002091
:1031A80087F82D0087F82E00012087F82F00F86A8D
:1031B80008616FF3000B6FF3410B6FF3820B6FF332
:1031C800C50B022161F3881BC3F30A0363F3532B76
:1031D8006FF31F5B002359469A4800F0E1FDA546AE
:1031E800A8F102083BE06FF00045C5E72B46082D23
:1031F80001DD786988610C2B01DDC1F81C9001F1B3
:10320800200300200128C3D800F1300C07F1280E54
:10321800F4441CF830CC03F801CB0130F2E76FF02E
:103228001B03B8E701238AE7D7F8803013F0020FB1
:1032380015D0002322461946B86931F0C9FCD7F8E1
:10324800843053B13B69D7F88820934205D2D7F828
:10325800842022F8130001333B61013880440AF1CD
:10326800010A35467B6A9A4510D22E4616F8029B0B
:103278006B78FA6952F82340744B9C42FFF451AFC3
:10328800734B9C42FFF45EAF00254BE7444611E7C1
:1032980007F144000023FB6118B14A4629464BF068
:1032A8006CF94D444FF00008C7F804901EE0002068
:1032B800F8610646F0E7FE6107F134000026EBE707
:1032C80000253B6A33BB002D3BD0D7F8803013F084
:1032D800010F26D0731C06F1300207F12801561899
:1032E80006F8149CDEB208F1010825467B6A984569
:1032F8004AD22C4614F802AB95F801905BF82930B5
:10330800524A9342DCD3524A934201D30025D8E76C
:103318000125D6E75146786931F0A0FC0028D2D0C3
:10332800E1E7D7F8803013F0040FDCD0FA69531CBA
:10333800303207F128010A4402F8249CDBB2FB6111
:10334800D1E7D7F8803013F0020F09D0731C06F1CB
:10335800300207F12801561806F8149CDEB2C2E7BD
:10336800F869431C00F1300107F128028A1802F8B5
:1033780024AC02460232D2B2FA6107F1580252FA7C
:1033880083F303F8249CAEE7D7F804909BF8003049
:1033980087F854309BF80130334487F85530D7F814
:1033A800803013F0020F0ED1FB69C3F3470387F88F
:1033B8005730D7F8803013F0010F06D113F0040FFF
:1033C80048D1002302E00023F1E7002387F85630B4
:1033D800DBF800003863786DCBF80000D7F8108070
:1033E8004246B9685846D7F818A0D047041EFFF6D9
:1033F80061AE386BCBF80000C7F810804246F96917
:1034080007F13400D047002857DB04EB0008B968FF
:1034180049447B6A01EB4301D7F810904A46FB68A0
:10342800591A2846D047041EFFF644AE08EB040597
:103438004FF000087E62C7F820B05646D7F884B02F
:103448001FE000BFFC0B00200CF7040004E604009A
:103458005CB50500FB69B9E74FF0000A4A4601214F
:1034680007F12C00B047002829DB054453462246C3
:103478004946304631F0ACFB002822DB054408F110
:1034880001087B6A984511D208F1300307F1280238
:10349800134413F8143C87F82C303A6A52F8234046
:1034A800BBF1000FD8D03BF818A0D7E73A69002144
:1034B8000846BB6998472C46FCE50446FAE50446ED
:1034C800F8E50446F6E500BF014B1860704700BFF9
:1034D800E401002080B505460E46174698462FF0B1
:1034E8006BFB03464BF080F80446DFF8189049F868
:1034F8000030424639463046A84754F8090004F0DF
:103508000BF800BF080000002DE9F04383B0044623
:1035180008461546238B13F0080F05D103F007065C
:1035280000230093019355E0012909D043F02003BB
:10353800238385F31188BFF36F8F03B0BDE8F08351
:1035480043F010032383F4E7204631F004FF43E0FF
:10355800D4F814904A466946204631F015FF4FF0DA
:103568000008238B03F00707B74269D0A268002A36
:1035780066D0012243F00803238385F31188BFF343
:103588006F8F002A64D1009B2BB14B463A4669469F
:10359800204631F072FFB8F1000F02D034492046BE
:1035A800C0474FF02003EFF3118583F31288BFF370
:1035B8006F8F238B23F008032383238B13F0100FC3
:1035C8004CD023F0100323830120268B06F0070636
:1035D8000028AED00228B7D00028AAD00138042885
:1035E8002AD801A353F820F05935000041360000CD
:1035F80005360000193600002D3600002369D3F87F
:1036080000800621204631F07CFE4FF00009A8E733
:103618002369D3F804800421204631F072FE4FF06C
:1036280000099EE72369D3F808800521204631F078
:1036380068FE4FF0000994E74FF00008C14690E794
:10364800009A0AB1002295E7B8F1000F92D1B4E7C9
:103658004A463946204631F05CFE94E713F0200FC5
:1036680004D023F0200323830220AEE70020ACE738
:10367800B154030070B506460D46084C04E02A46CE
:103688003146204698471034054B9C4204D22368A3
:103698009B69002BF3D1F6E770BD00BF38ED04003D
:1036A80048ED04002DE9F041074605460AE007EA1F
:1036B8000807144B03EB06135B68042219682046BD
:1036C80000F03EFBD5B195FAA5F6B6FA86F60D4C94
:1036D80004EB06140123B3406FEA030825EA030547
:1036E800237B002BEED03301064AD3581B69002BED
:1036F800DDD0204698470028E4D1D8E73846BDE811
:10370800F08100BF38ED04002DE9F04180460F46F6
:103718001E4BD3E8EF5F6A1CC3E8E12F0029F8D1FC
:10372800002D2FD11A4C002607E06368042219687F
:10373800204600F005FB01361034164B9C4213D28C
:10374800237B002BF8D02368DB680BB12046984711
:1037580023681B69002BE8D0204698470028E4D04E
:103768000123B3401D43E6E7B8F1000F0BD055B174
:103778002846FFF797FF0546002FF8D00A2032F0B9
:1037880072F8F4E700252846BDE8F08150A3002030
:1037980038ED040048ED040008B5064B186018B170
:1037A800054B1B68092B00DC08BD04482FF0DCFB27
:1037B800FAE700BF44A300204CA300207C0E0020A1
:1037C80008B502482FF0D0FB08BD00BF7C0E0020D2
:1037D8000B7813F0040F17D110B54A680B88C3F3A0
:1037E80082140978C1F3C20113F4E07F0ED07AB1D4
:1037F800084BD21A012342F38F0232F006F98442B1
:103808008CBF0020012010BD012070470120FAE77D
:103818000120F8E7F80B002038B505460B4C00E00E
:1038280010340B4B9C420FD263685B79002BF7D0A6
:1038380029462046FFF7CCFF0028F1D023681B68F3
:10384800294620469847EBE738BD00BF38ED04000D
:1038580048ED040030B589B000220F490F484AF0FE
:10386800C7FB0F4D00220023CDE906230024049452
:103878000E2303930294019400940A4B4FF4407270
:103888000949284649F017FF084928462EF0DAFD6D
:10389800204609B030BD00BFC9370000C015002060
:1038A80000110020C93B0000D0150320CCF704000C
:1038B80048B108B5054A1060054B1960084600F084
:1038C80029FD002008BD6FF015007047E8010020B1
:1038D80040A3002008B5054B1B781BB1034B012200
:1038E8001A7008BD02482FF03FFBF7E7A305032035
:1038F8007C0E0020094BD3E8EF1F0131C3E8E21F1B
:10390800002AF8D100B97047054BD3E8EF1F0139F9
:10391800C3E8E21F002AF6D0F7E700BF48A300205B
:103928004CA30020044B00200146D3E8EF0FC3E866
:10393800E21F002AF9D1704748A3002038B5FFF7E5
:10394800F1FF0546094C00E01034094B9C420BD2AC
:1039580063685B79002BF7D023685B68002BF3D092
:10396800294620469847EFE738BD00BF38ED0400E8
:1039780048ED0400034B18680028D4BF002001203C
:10398800704700BF48A3002010B5044C04492046E6
:1039980031F0F6FA034B1C6010BD00BFB40B0020D9
:1039A800D4F704003CA3002008B50023074A13708D
:1039B800074A1360074A13604FF400410648FFF7AF
:1039C80077FFFFF7E1FF00F065F908BDA4050320C4
:1039D80048A300204CA300206758030008B50146FF
:1039E800014831F056FF08BDB40B002008B5024865
:1039F80031F0AAFB08BD00BFB40B002008B5014692
:103A0800024B186831F04BFF08BD00BF3CA30020F3
:103A180008B5024831F047FF08BD00BFB40B0020CD
:103A280010B582B000220023CDE90023264B187878
:103A380008B902B010BD684631F04DFF044668B1C0
:103A4800224BD3E8EF1F0139C3E8E21F002AF8D15F
:103A58002046FFF7E1FE2046FFF7D0FFFFF78AFF79
:103A680058B91B4A1368516813F57A7341F100017C
:103A780013605160FFF7CCFFDBE74AF049FA4A01CF
:103A880042EAD06243011B1A62EB0102920042EA49
:103A980093729B001B1842EB0102D20042EA537258
:103AA800C3F3103343EA4243D20B09480168406824
:103AB8005B1A62EB000240F2E9318B4272F10002BC
:103AC800CFD3FFF73BFFCCE7A30503204CA300208F
:103AD800B81500200F4B1B7803B1704710B50021B3
:103AE8000120FFF711FE0C4C00E010340B4B9C42F8
:103AF80008D263685B79002BF7D023689B6820465F
:103B08009847F2E7FFF78CFF0028FBD1014B012211
:103B18001A7010BDA405032038ED040048ED040018
:103B280010B582B0194BD3E8EF2F511CC3E8E01F42
:103B38000028F8D1164B1B7863B9164B1B68BBB12C
:103B4800C2B1092A14D114484AF05EFA13482FF07A
:103B58000BFA0DE04FF02003EFF3118483F3128882
:103B6800BFF36F8FFFF75CFF84F31188BFF36F8F8C
:103B780002B010BD00220023CDE900234FF400421B
:103B8800002305482FF058FEF2E700BF4CA30020A1
:103B9800A405032044A30020C01500207C0E0020AB
:103BA80010B50446044B1B689847A060214603489B
:103BB80031F095FE10BD00BFE8010020B40B0020D5
:103BC8002DE9F04100210846FFF79EFD804650B1DF
:103BD80040F2676600274AF007FD154B1858FFF7B3
:103BE800DBFD002515E04FF0FF364FF0FF37F2E719
:103BF8004046FFF757FD804670B94FF0FF364FF04B
:103C0800FF3709E02C4632463B460A482FF0D4F9E4
:103C18002546B8F1000FEBD1FFF702FF0446002854
:103C2800F6D1002DEED000210846FFF723FDEAE784
:103C3800080000007C0E0020014800EB810070475E
:103C4800F80B00200248034BC01AC008704700BF99
:103C580038ED040060EB040010B50C46FFF7F2FFE6
:103C6800A04203D9024B53F8340010BD0020FCE7F2
:103C780060EB040010B50C46FFF7E4FFA04204D93E
:103C8800034B03EBC403187910BD0020FCE700BF09
:103C980060EB040010B5002410E021460020FFF777
:103CA800E9FF0A4A52F8243023F0070342F8243087
:103CB80000F00700034342F824300134044B054A5E
:103CC8009B1AB4EBD30FE8D310BD00BFF80B00204C
:103CD80038ED040060EB04002DE9F8430D46164664
:103CE8009846002812DBC4B20023204631F031FE8A
:103CF800074610B1404500D947463B463246E9B22F
:103D0800204631F006FE3846BDE8F8830A4B0B4AD8
:103D1800A3EB02094FEA19190024274609E0434694
:103D2800324629462046FFF7D7FF874238BF074665
:103D380001344C45F3D3E6E748ED040038ED0400C0
:103D480038B504460D461146084BC31A1B110133FA
:103D5800426813714368997131F037FE63681D60DA
:103D6800636801225A71FFF7B5FD38BD38ED0400CC
:103D780000B589B0059206930023079362B1074AFC
:103D88000C9B02930B9B01930A9B009305ABFFF7D7
:103D98003FF909B05DF804FB0022F1E7295A030056
:103DA8002DE9F04F8BB004AF05461E468846C1F397
:103DB8004A24002C00F08F8091460022FA603A6174
:103DC8007A6104230293FB1801930A23009307F1F5
:103DD8000C0321464846FFF71BF9B0F5006F5ED388
:103DE800464B1B6813F0060F00F08480D9F80410C6
:103DF8006D4600233B7302237B738AB004AC14F135
:103E0800100221D012201AB1042801DD3C4B636155
:103E180000233B7002237B70CAB10346082800DDEB
:103E2800A1610C2B02DD40F2FF73E36104F1200372
:103E3800002101290BD801F118063E4416F8186C28
:103E480003F8016B0131F4E76FF00040DBE711285C
:103E580022DD122342B10421397300217973B97329
:103E68000121F973F868206100216FF300016FF3F5
:103E780041016FF382016FF3C501022060F38811DD
:103E8800C3F30A0363F353210023C1F313011B484F
:103E980031F046FEAD462DE06FF01B03DAE760F324
:103EA8005328C0F30A0A0AEB1850173020F007000D
:103EB8008008FFF793FD8346B0B104230293FB18F3
:103EC80001930A230093534600F110022146484605
:103ED800FFF74EFF08E004EB1154173424F00704F1
:103EE800A008FFF77BFD83463346424629465846DD
:103EF80031F0ACFD1C37BD46BDE8F08F400C00200A
:103F0800F8F704000EB400B582B0014603AB53F8CD
:103F1800042B0193034803F00BFF02B05DF804EB98
:103F280003B070474F5C030030B585B011F0440F03
:103F380005D01A4B1C6834B9002005B030BD1849AB
:103F4800FFF7E0FFF9E7174B1968B2FBF1F1B1FB96
:103F5800F4FC154AA2FB0C32D20A4FF4616E0EFB38
:103F680012CE124BA3FB0E535B0904FB1C114FF43A
:103F78007A7C0CFB01F1B1FBF4F504FB15110CFB89
:103F880001F1B1FBF4F102910195C3EB0311AEEB22
:103F9800810100910649FFF7B5FFCEE758A300203D
:103FA80038F8040054A30020C5B3A29189888888F2
:103FB80044F8040061B108B52AB1064A52F8232032
:103FC80012B9054A00E0044A0449FFF79BFF08BDFF
:103FD800704700BFD4F8040060F80400E050050002
:103FE8002DE9F04105461746069EDDF81C8081B98B
:103FF80000242EB1324611492846FFF783FF0444B6
:10400800B8F1000F14D06FB1099B042B13D00C49E1
:1040180009E00C4B099A53F822200B49FFF772FF6D
:104028000446E6E7064942462846FFF76BFF044484
:104038002046BDE8F0810549F5E700BF7CF804009B
:104048006CF80400E8F8040074F8040068F8040048
:104058002DE9F04F87B005460C46049205939DF86C
:104068004C7001F0020B01F0010AC1F3C00801F421
:10407800807931F03AFC18B3024616492846FFF712
:1040880041FF0646BBF1000F1CD13A46514628466F
:1040980031F099FDB9F1000F01D000231193039776
:1040A800129B0293119B0193109B00930023049A87
:1040B80041462846FFF794FF304407B0BDE8F08F2B
:1040C8000026DFE7059A21462846FFF72DFF06441C
:1040D800DBE700BF80F8040011F0100F0BD108B522
:1040E80011F0200F03D00449FFF70CFF08BD034966
:1040F800FFF708FFFAE770474803050084F8040053
:104108002DE9F04105460F46164698460699FFF7F1
:10411800E3FF0024444505DA24492846FFF7F2FE68
:104128000134F7E7002409E020492846FFF7EAFEB2
:104138000BE01F492846FFF7E5FE01340F2C0CDC85
:10414800002C02DD14F0070FEED0B442F1D23A5D34
:1041580018492846FFF7D6FEEFE717492846FFF724
:10416800D1FE002409E011492846FFF7CBFE0BE0F9
:1041780012492846FFF7C6FE01340F2C13DC002C29
:1041880002DD14F0070FEED0B44207D23A5D0C4BB3
:104198009B5C13F0970FEBD12E22E9E703492846E1
:1041A800FFF7B0FEE8E7BDE8F08100BF78F804004B
:1041B800683A050088F8040090F80400F005050046
:1041C8004AB405002DE9F04184B004469DF82C500E
:1041D8000C9F0E9E95B9012B1ED019484FF0000870
:1041E80027B13B462246174930F008FDC6B905BB42
:1041F800204631F01BFD04B0BDE8F08103950A9814
:104208000290019300920B4600220F992046FFF777
:104218001FFF80460C48E3E70B484FF00008DFE734
:104228000F9B0093434632460D99204631F0E3FC3C
:10423800DDE72A460F99204631F0D1FCD8E700BFC8
:104248007F5C0300397D00004F5C03002DE9F043DB
:1042580087B006460C469046D1F808900F88C7F3F9
:1042680082170878C0F3C2004B6833B11249591A53
:1042780041F38F0100291ADA0023214651F8105B17
:10428800C5F34A256288C2F30B12481905B9002103
:10429800CDF81480049203900291019700220092B5
:1042A80049463046FFF78EFF07B0BDE8F083FFF7B9
:1042B800D3FC0346E1E700BFF80B002070B582B0DD
:1042C8000446056842F20F738B4228BF0B460E4A1C
:1042D800052168462FF0B0FB064663685B68042238
:1042E8000A49284631F062FC63685B6832466946D1
:1042F800284631F05BFC63685B681722044928464E
:1043080031F054FC02B070BD98190500ACF80400F7
:1043180094F80400074B01221A6004E04008054A9B
:1043280013685B001360044B9842F7D8034B18607E
:10433800704700BF54A3002040420F0058A300203C
:10434800014B036000207047FCF8040084460023FA
:1043580000E00133074A12689A4208DD1A0106494B
:10436800096801EB03108A5C6245F2D100E0002085
:10437800704700BFFCF80400EC01002038B50C4B76
:104388001B687BB10C46FFF7E1FF054668B1C068C2
:1043980028B149F06BF810B12560002038BD6FF0E6
:1043A8001200FBE76FF00C00F8E76FF00100F5E78B
:1043B800EC010020F8B50746FCF794F806464FF0E4
:1043C800FF324FF0FF3311482EF0CEFC104B1C6823
:1043D8009C4206D1002404E00D4B5B689C4213D03C
:1043E800246864B1A5682846FCF77CF8B042F3D18C
:1043F8003246294638464AF026F80028ECD10348C8
:104408002EF036FD2046F8BD0024EAE74C0D0020CA
:10441800F001002010B504464FF0FF324FF0FF3393
:1044280018482EF0A1FC84B1A06870B1FFF7C2FF54
:10443800C8B9154B5A682360626014605C60002438
:1044480010482EF015FD204610BD104B1B6813F0C8
:10445800070F02D16FF01504F2E70D4A01210B484E
:1044680031F03CFBF6E7094B1B6813F0070F02D14C
:104478006FF01504E4E7074A0121044831F02EFBE8
:10448800F6E700BF4C0D0020F0010020040C0020CE
:1044980060F904007CF9040008B5034B034A0821BD
:1044A80032F0E6F8002008BDA8F90400B0F90400CD
:1044B8002DE9F04182B0064615460023019301AA72
:1044C8000A21A86801F0AEFD019C9CB98046C3B2E0
:1044D800042B17D8686831F054FA071E1DDB3AB26E
:1044E8005FFA88F30021084631F065FA204602B0E9
:1044F800BDE8F08123460C4A0121304632F0B8F875
:10450800019CF3E7C3B2094A0121304632F0B0F802
:10451800304632F0CBF80124E8E76B68044A012101
:10452800304632F0A5F8DAE7C4F90400ECF90400E3
:1045380004FA040030B583B0054613460022019200
:1045480001AA0A21586801F06DFD019C24B931F0D7
:104558002CFC204603B030BD2346034A01212846DF
:1045680032F086F8019CF4E724FA040010B50446FA
:104578000EF020FB0346084A0821204632F078F85E
:10458800064A0821204632F073F8214604482EF0E6
:104598006BFF002010BD00BFD0FA0400F0FA040041
:1045A800AD45000070B58EB004460D46D0F89C604D
:1045B80049F070F802464AF017F8254B1B589C4200
:1045C80030D0244B002A2FD001920094224A08218F
:1045D800284632F04DF894F90E10D4E90A23CDE9B3
:1045E80002230091237B1D4A0821284632F040F817
:1045F800202205A920462DF037FF0346626E00925F
:10460800174A0821284632F033F80DA9204649F008
:1046180085F8034650B1134A0821284632F028F895
:104628000EB070BD104BCDE7104ACDE70D9AB11A08
:10463800642301FB03F3B3FBF6F3039302960191A2
:10464800009233460A4A0821284632F011F8E7E773
:104658000800000078F8040000FB04000CFB0400CC
:1046680038FB040050FB0400FC120500FCFA0400AF
:1046780080FB0400F0B589B004460D46D0F89C6074
:1046880007A949F04BF8C8B9204649F003F8079A3A
:10469800B11A642301FB03F3B3FBF6F30746A0B199
:1046A8000593049603910292019600972346084ABF
:1046B8000821284631F0DCFF09B0F0BD0346054A61
:1046C8000821284631F0D4FFF6E7034FE8E700BF9A
:1046D800B8FB040050FB0400FCFA040070B592B06B
:1046E800054600240A940B940C940D940E940F9490
:1046F800109411944FF020330A930B930C930D935D
:104708000E930F93ADF84030014614482EF0ACFEDE
:1047180014B1002012B070BD114E06EBC42609AAD0
:104728004FF40061304648F0E8FF0999C1F5006090
:10473800642200FB02F2D20A06924FF4006305934A
:104748000490039102930AAB019300943346054AFF
:104758000821284631F08CFF0134D9E77D46000056
:10476800D0460320FCFB040010B5044637F0BAF825
:104778000346034A0821204631F07AFF002010BD85
:1047880048FC040010B503460C461146006808B101
:10479800027822B9024A20462FF04EF9204610BD71
:1047A80024FE040070B586B0054605A82DF020FB50
:1047B80000EB8000059E06EB8006124A0821284679
:1047C80031F056FF059C06E00F4B104A0821284699
:1047D80031F04EFF1434B44211D2142269462046F7
:1047E800FFF7D0FF03460A4A0821284631F040FF68
:1047F800204648F03BFE0028E6D0064BE5E70020BF
:1048080006B070BD40FE040034FE040054FE0400EF
:104818004CFE04002CFE040008B5102A12D0202AF1
:1048280013D0082A06D00A4A082131F021FF6FF078
:10483800150006E00B78DBB2064A082131F018FFB4
:10484800002008BD0B889BB2F6E70B68F4E700BFB1
:10485800D4FE0400ECFE040008B5029B102A0ED01A
:10486800202A10D0082A06D0084A082131F000FF73
:104878006FF0150002E0DBB20B70002008BD9BB2A0
:104888000B800020FAE70B600020F7E7D4FE040055
:104898008B1E022B3AD82DE9F04182B005460C4612
:1048A80016461022002170682FF062F98046022C0B
:1048B8001FD820273B46174A0821284631F0D8FE42
:1048C800032C1DD910220021F0682FF051F904465D
:1048D8000346114A0821284631F0CAFE00940023F5
:1048E80001933A4641462846FFF7B6FF02B0BDE8B5
:1048F800F0810A220021B0682FF03AF9C7B2D9E74F
:104908003A4641462846FFF787FFEFE76FF0150064
:10491800704700BF00FF040018FF040038B50446C4
:104928000D4611B10F4B1B785BB90E4A137883F013
:104938000103137063B92946204631F0D3FE0020E5
:1049480038BD094A012131F093FE6FF00F00F7E7F7
:10495800064A0821204631F08BFE024B01221A70CC
:10496800E9E700BFA50503202CFF040068FF040049
:10497800F8B507460E4615460023244A1370244A04
:104988001360244A13600CE000231C4402222249CD
:10499800204649F058FD98B91C4B01221A7004357D
:1049A800013E012E1ED96C6802221C49204649F09E
:1049B8004AFD0028E8D1A378002BE6D00123E4E7DC
:1049C80016492046FBF77CFD58B123782D2B09D1D9
:1049D80063783BB12346124A0821384631F048FE35
:1049E800DDE704350022114668682FF051F80D4BB9
:1049F80018600022114668682FF04AF80A4B1860C0
:104A08000A493846FFF78AFF0020F8BDA7050320AA
:104A180060A3002064A3002098FF040094FF040012
:104A28009CFF04006CA3002068A30020394A000002
:104A380038B50546554B1B78182B01D0002305E0E7
:104A48000B78112B32D0002300E0013302F1FF3C38
:104A58009E469C4509D9CC5C182CF6D18E449EF80C
:104A680001001128F1D1012300E00023F3B911F866
:104A78000C20464B1A700A78A2F13003DBB2092BDE
:104A880009D9A2F16103DBB2052B04D9A2F14103D4
:104A9800DBB2052B05D83E490B683E48C2540133AA
:104AA8000B603B4B1B68022B5ED038BD3A4B1B6832
:104AB8003A4A0821284631F0DBFD00212846FFF755
:104AC8002DFF374B1B78002BEFD113E0354D2A68AB
:104AD8001068030A03F47F4343EA1063040204F4F2
:104AE8007F04234343EA006342F8043B2A60043905
:104AF800294B1960284B19680429E7DC11F0030FCA
:104B08000FD1284B18680268130A03F47F4343EA5D
:104B18001263110201F47F010B4343EA026303604D
:104B2800C3E74B4201F0030103F0030358BF5942A6
:104B380002290FD00329B8D11A4B19680B68C3F39F
:104B4800074203F47F4002431B0403F47F0313432B
:104B58000B60AAE7134B19680B68C3F307221B0203
:104B68009BB213430B60A0E71022002109482EF0E6
:104B7800FFFF0D4A136803F8010B1360064A136818
:104B880001331360024B00221A608EE7A60503204A
:104B980060A300205CA3002064A30020B4FF0400ED
:104BA800A705032068A300206CA300202DE9F0438B
:104BB80085B080460F4615461C46DE08002D5DD0A0
:104BC8004FF0000C08E01CF807300CF110010DEB59
:104BD800010C0CF8103C9446B54240D30CEB06028D
:104BE800102A3CD8102C0DD0202C1BD0082CEAD031
:104BF800234A0821404631F03BFD6FF0150005B00F
:104C0800BDE8F0833CF807300CF11001694401F865
:104C1800103CC3F307230CF111010DEB010C0CF848
:104C2800103CD8E75CF807300CF11001694401F832
:104C3800103CC3F307200CF11101694401F8100C72
:104C4800C3F307400CF11201694401F8100C1B0E64
:104C58000CF113010DEB010C0CF8103CBBE7A94655
:104C6800102D28BF4FF010094B466A46394640467A
:104C780000F0C6FF1037A5EB09059FE70020BEE747
:104C8800D4FE04002DE9F84306460D461446414B70
:104C980001221A604FF0FF374FF02009B8463E4A0C
:104CA80021462846FDF7D4FDB0F1FF3F54D07328C4
:104CB80020D0772837D0612803D06FF01500BDE8E1
:104CC800F88310220021354B18682EF051FF074653
:104CD8000028E4D149F088FC314B1B58162BDED153
:104CE8002E4B1B682F4A0121304631F0C1FC6FF072
:104CF8001500E4E700221146284B18682EF038FF0B
:104D080080460028CBD149F06FFC254B1B58162B49
:104D1800C5D1224B1B68244A0121304631F0A8FC3A
:104D28006FF01500CBE7002211461C4B18682EF0D7
:104D38001FFF81460028B2D149F056FC184B1B587A
:104D4800162BACD1154B1B68184A0121304631F09F
:104D58008FFC6FF01500B2E7B7F1FF3F0AD0B8F14A
:104D6800FF3F0FD05FFA89F3424639463046FFF7D6
:104D78001DFFA4E70E4A0121304631F079FC6FF09F
:104D880015009CE70B4A0121304631F071FC6FF0A9
:104D9800150094E7DC0100200C00050030A300207A
:104DA8000C000000D0FF0400E4FF0400F8FF04003A
:104DB800140005003400050010B50246034653F8F8
:104DC800584B4021C16403630023C3638363436377
:104DD80083644364036400F150010820D0621161C8
:104DE800D36193615361936253621362C2F8D03006
:104DF8000349204630F0FFFF204631F016F810BD79
:104E0800AB5F03002DE9F04383B080460F464FF0B7
:104E180000090BE06FF057044FF0010921462846BE
:104E280030F06EFC002C32D0B44230D107F130059E
:104E3800FA6C01A9284630F042FC064670B1019987
:104E4800D8F808301B69002BE4D002464046984742
:104E580004460028E2D04FF00109DFE7114B1B6838
:104E680013F0060F0AD1D8F808301B6963B1012284
:104E78000DF10301404698470446D3E70A4A022148
:104E8800084830F02BFEEEE76FF05704CCE7B9F195
:104E9800000F03D07B68B9680020984703B0BDE8CD
:104EA800F08300BF740C0020F801050000B583B042
:104EB800094848F0DBFA60B1042300930123074A4C
:104EC80012680549064800F0A1FD002003B05DF80E
:104ED80004FB6FF01200F9E778E704001002050000
:104EE800E0ED040083681971022900D0704710B5FD
:104EF800044683689B6B03B110BD31F06CF8A3685E
:104F0800D3F8683213F4805F03D1204631F000FFF4
:104F1800F2E7054B054A0321204631F05CFE0021EB
:104F2800204631F00DF9F0E7BC020500E05005001D
:104F380010B5044631F0E7F8A3685B6B13B101467E
:104F480020469847A3680022C3F8102349F04CFB79
:104F5800014B185802F0E0FA080000002DE9F04172
:104F68000646884617464FF446720021806849F085
:104F78002BFBB36832681A60304631F0AFF9B0687D
:104F880000F53F7048F0B3FD002517E0B0682C012C
:104F980004F51A742044043049F0F3F9B068031991
:104FA80005EB850C4FEA8C0C0CF52A7C6044043325
:104FB80000220121043049F0B1F90135032DE5DD66
:104FC800B36900221A600121304631F0E9F8B3686C
:104FD80050225A85B36818221A85B4682068B0B17F
:104FE800FBF780FA80B284F82C006FF38207B3686D
:104FF800C3F86472706803681C683346054A414602
:10500800A04710B9B36801221A71BDE8F0810020E9
:10501800E9E700BFCB62030008B58368D3F86432C0
:1050280013F0200F00D108BD0249406931F05BF947
:10503800F9E700BF60EE040010B504468168083146
:1050480001F0E4FAA168034A0831204632F021F859
:1050580010BD00BF0003050009B10020704710B55E
:10506800044683689B68054A012131F0B4FD204657
:10507800FFF7E2FF6FF0150010BD00BF1003050039
:10508800F8B5044616468068426962B10D46027E4C
:105098008AB3437EFF2B25D0AA4226D81344AB42BD
:1050A80048D2002122E0ABB15A68002A44D0C16836
:1050B8008A420AD000F1080E9C46BCE80F00AEE810
:1050C8000F00DCF80030CEF800302046FFF7B4FFC0
:1050D80001272DE01A4A0121204631F07CFD6FF0AE
:1050E800070725E04FF6FF73D6E700212046FFF7B4
:1050F800B3FF0746E0B90121204631F069F8A068FE
:1051080000F53F702DF0B4FEA3685B69324629466E
:10511800204698470746A06800F53F704FF0FF32D9
:105128004FF0FF332DF020FE0021204631F050F8DB
:105138003846F8BD0121D9E76FF00707F8E700BF47
:105148002C03050091B110B504460846D36803B98D
:1051580010BD204631F09CFC204601F05FF8044A5F
:105168000121204631F037FD0020F1E7012070478A
:105178004C0305002DE9F047A6B00646542200214D
:105188000CA849F021FA00230693059304934FF0E5
:10519800FF330393B36803F1460A304631F078FCD5
:1051A800304631F007FCC8B1B36800279F60DF6064
:1051B8001F615F619F61304631F08CFBB168B1F8C7
:1051C80040204631304631F0A5F8304632F08EF9AD
:1051D8000897B8460CACB9463D465BE06C49706927
:1051E80031F081F8E0E700286AD00346694A0121D6
:1051F800304631F0F0FC6FF00700A1E0206801F0C4
:1052080027FA00285FD0089B5BB1B468083407AD63
:105218000FCD0FC42B6823603046FFF70DFF012028
:105228008EE05D4A0121304631F0D5FC6FF0070071
:1052380086E022682946304632F07DF9022868D097
:10524800032843D0069B013306934FF0010921E060
:1052580021AA2168384631F0E8FA054639E0069B6C
:1052680093B9B368DB6923B1DB6813B14FF0010868
:1052780048E04A4B00930C9B494A0121304631F0E3
:10528800AAFC4FF001083DE04FF001083AE0069B08
:1052980001330693049B012B3BD0069B132B38D874
:1052A800039B002B35D002235246214604A800F068
:1052B80019FED4F804A0049B002B63D0012B92D0D4
:1052C800069B002B9AD1069B002BB2D1B8F1000F98
:1052D800BED00434039B013B0393002DBFD02A4664
:1052E80049463046FFF72EFF00284ED0B16803AB81
:1052F800019305AB009306AB07AA0831284630F0A6
:1053080088FE2F46039B002BC1D1049B022BC1D1E1
:10531800BDE7069B132B02D9049B022B13D0B9F1CE
:10532800000F19D117B17B7CFE2B20D0059907AB54
:105338000CAA02EB81020698411A3046FFF7A0FE3C
:1053480026B0BDE8F087174B174A0121304631F0E7
:1053580042FC6FF00700F3E7304632F0FFF8B2681E
:10536800142346320CA906A800F0BCFDDAE7069B18
:1053780026AA02EB830252F8682C002AD6D0013301
:105388000693D3E76FF00700DAE76FF00700D7E777
:10539800480305007C0305002C030500980305005D
:1053A80090030500AC030500BCAF0500F0B583B061
:1053B80004461D468068B0F84030FF2B46D00F46A3
:1053C8001646B0F8422000F1460100F5A37049F0F6
:1053D800D4F8A368B3F842201344002283F8462186
:1053E800A268142302F5A3723168284600F07AFDFA
:1053F8002B68142B2DD83268002142F82310A3689B
:10540800B3F84220013A134493F84630134AD35C68
:1054180003F008032C6884B113B9012C0DD0013CAA
:1054280000200190099B0093089B3268214631F0C7
:105438001FFA386038B1012009E00023089A136088
:105448003B60012003E034B9012000E0002003B0F4
:10545800F0BD0020FBE70020F9E700BF4AB40500D3
:10546800F8B504460E461F4672B31046FBF73AF8E5
:1054780085B2A26808323946304600F059FD066800
:1054880026B33046FBF72EF880B2A84220D1A26896
:10549800B2F84230134493F846301649CB5C13F007
:1054A800080F21D1D2F8643213F0010F17D0002170
:1054B800204630F0BDFE2021204631F0D7FB0121E7
:1054C800204630F0B5FEF8BD0025D2E70020DCE725
:1054D800421B92B27119204631F0E4FBD7E7202134
:1054E800204631F0C3FBEEE70121204631F07DFA7A
:1054F800E9E700BF4AB405002DE9F04182B006464D
:1055080049B30F46023294B2D0F80880B8F82A504E
:10551800023D95FBF4F5ADB20846FAF7E3FF80B219
:10552800241AA4B2B8F830305A1CA8F83020B3FBBB
:10553800F5F205FB12339BB28BB900970B4B0C4A63
:105548000621304631F047FB2146304600F022FE66
:1055580002B0BDE8F081836800221A86F8E73B466E
:10556800044A0621304631F036FBEDE7D00305004A
:10557800D4030500E05005002DE9F84F0746894699
:105588001D460A9EBDF82CB0904652B11046FAF757
:10559800A9FF1FFA80FA5A4600213846FFF7ACFFE8
:1055A80008E04FF0000AF6E75A4621683846FFF748
:1055B800A3FF013EA6B1BA6808322946484600F062
:1055C800B7FC04460135B8F1000FEDD0006800289B
:1055D800EAD05246414648F036FF0028E4D0E9E7D1
:1055E8000449786930F07FFE384631F091FBBDE818
:1055F800F88F00BF4803050010B504460139162985
:105608000FD8DFE801F00C0F1226292C0E0E0E0E13
:105618002F320E4C0E500E0E0E0E540E610031F04D
:105628002EFA10BD31F03FFAFBE731F031FA20468F
:1056380031F0C0F940B10121204630F0E1FD0221EE
:105648002046FFF74FFCECE72349606930F04BFE3A
:10565800F1E731F02BFBE4E731F01AFAE1E731F03A
:105668002DFADEE731F037FADBE78368D3F86432E6
:1056780013F0200F09D1A368D3F8643213F0200F78
:1056880008D1204631F044FBCBE71449406930F09B
:105698002AFEF0E71249606930F025FEF1E70021A3
:1056A80030F034FFBDE7012130F030FFB9E731F0C9
:1056B800E6F9204630F08FFC0121204630F0A0FDAD
:1056C8002046FFF7A9FCACE700F050FE0121204678
:1056D80030F096FDA5E700BF4803050068EE04001A
:1056E80070EE040070B586B0044600230593A368E5
:1056F8009D6BF5B1606803681E6905AB10226946A9
:10570800B047059B9BB10121204630F061FD059A09
:1057180069462046A8470021204630F059FDA36875
:105728009B6B002BE3D102212046FFF7DBFB06B081
:1057380070BD606803681D6905AB01220DF1130196
:10574800A847059B002BF2D09DF813109DF9133044
:10575800002BCCDBA2685379032B00F25081DFE8E1
:1057680013F00400B800CA004B01204630F07BFC5F
:10577800002841D19DF813101B2953D81B2900F28A
:105788008E8001A353F821F0F7560000A7580000B7
:10579800A7580000A7580000A7580000A758000005
:1057A800A7580000A758000081580000635800005F
:1057B800A7580000A7580000A7580000A7580000E5
:1057C800A7580000A7580000A7580000A7580000D5
:1057D800A7580000A7580000A7580000A7580000C5
:1057E800A7580000A7580000A7580000A7580000B5
:1057F800A75800005B580000A568B5F840305BB9B1
:10580800204630F07EFD7F49606930F06CFD022152
:105818002046FFF767FB6AE72046FFF7ABFCC5F8B1
:105828001403F4E77F293AD1A368D3F8643213F05C
:10583800020F3FF45CAF0121204630F0E1FCA36881
:10584800D3F8643213F0080F25D0204631F04DFA12
:105858004DE7A36801225A7149E7A368D3F8643277
:1058680013F0020F3FF443AF0121204630F0C8FC8B
:10587800204630F0F3FD3AE7A368D3F8643213F01A
:10588800020F3FF434AF0121204630F0B9FC204626
:1058980031F02BFA2BE7204631F008FA27E75A4B6C
:1058A8005B5C13F0970F0AD1A368D3F8643213F046
:1058B800020F3FF41CAF2046FFF79EFE17E70121B9
:1058C800204630F09DFC9DF81310204631F0CEF9AB
:1058D8000DE75B2908D0D2F8643213F0020F06D125
:1058E800A36800225A7102E702235371FFE620469B
:1058F80030F0FDFDF4E700235371A368D3F8642268
:1059080012F0020F3FF4F3AE31391B293FF6EFAE28
:1059180001A252F821F000BFC1590000CD59000082
:10592800E7590000B5590000F7560000F756000087
:10593800F7560000F7560000F7560000F75600002B
:10594800F7560000F7560000F7560000F75600001B
:10595800F7560000F7560000915900009B590000C7
:10596800A5590000AD590000F7560000B9590000CC
:10597800F7560000C5590000F7560000F75600001A
:10598800F7560000D15900000121204630F0BEFD35
:10599800ADE60021204630F0B9FDA8E6204631F0FA
:1059A8008DF8A4E6204631F07EF8A0E603225A716D
:1059B800204631F06DF89AE603225A71204631F0FC
:1059C8005EF894E603225A71A368D3F8641201F0D2
:1059D800010181F00101204630F02AFC87E603220C
:1059E8005A71A368D3F8643213F0020F3FF47FAE04
:1059F800204631F05BF97AE60023537177E60023FD
:105A0800537174E6480305004AB4050070B588B0C0
:105A180004468068D0F8100310BB1D462046FFF7E7
:105A28009DFA064610B1304608B070BDA06AE16A1A
:105A380000220023CDE90623002304930E230393B9
:105A48000C9B029301950094074B4FF4006247F0BA
:105A580032FEA368C3F81003616A2CF0F3FCE2E796
:105A68006FF07706DFE700BFF15A000083681A7904
:105A7800012A34D110B50446D3F8682212F4804FB5
:105A880004D0D3F8642212F0040F1DD0A06800F5EA
:105A98003F704FF0FF324FF0FF332DF065F90821CA
:105AA800204600F039FC206818B1FAF71BFD80B2D7
:105AB80080B902212046FFF715FAA06800F53F706B
:105AC8002DF0D6F9002010BDDA6B0146C06931F01F
