:10000000105F032091730000456E03007D730000B4
:100010007D7300007D7300007D7300007D73000020
:10002000000000000000000000000000AD740000AF
:100030006901000000000000417400007D730000B1
:10004000C1760000C1760000C1760000C1760000D4
:10005000C1760000C1760000C1760000C1760000C4
:10006000C1760000C1760000C1760000C1760000B4
:10007000C1760000C1760000C1760000C1760000A4
:10008000C1760000C1760000C1760000C176000094
:10009000C1760000C1760000C1760000C176000084
:1000A000C1760000C1760000C1760000C176000074
:1000B000C1760000C1760000C1760000C176000064
:1000C000C1760000C1760000C1760000C176000054
:1000D000C1760000C1760000C1760000C176000044
:1000E000C1760000C1760000C1760000C176000034
:1000F000C1760000C1760000C1760000C176000024
:10010000C1760000C1760000C1760000C176000013
:10011000C1760000C1760000C1760000C176000003
:10012000C1760000C1760000C1760000C1760000F3
:10013000C1760000C1760000C1760000C1760000E3
:10014000C1760000C1760000C1760000C1760000D3
:04015000C176000074
:04015400FFFFFFFFAB
:100158004A4C494E4B4D4F4E48414E444C45520037
:1001680000B536F057FE5DF804EB134B02E0586813
:100178000003FCD4586840F40020586000B536F0FD
:100188004AFE5DF804EB0C4B5868000DF6D218686F
:10019800010A0006000E002812D0022818D002D347
:1001A800032814D0E6E7586820F40020586000B50A
:1001B80036F02FFE00BD00BFF8ED00E088ED00E04E
:1001C80064201860586840F400205860CFE77DE04C
:1001D8005FEADE022CBFEFF30982EFF308820429FD
:1001E80002D252F821006BE0052901D2204667E0CF
:1001F800062901D2284663E0072901D230465FE08C
:10020800082901D238465BE0092901D2404657E067
:100218000A2901D2484653E00B2901D250464FE043
:100228000C2901D258464BE00E2901D2106947E04B
:100238000F2901D2506943E0102901D290693FE0AB
:10024800112901D2D0693BE012290ED2EFF30880C0
:100258005FEADE0131D25FEA5E112CBF20306830E0
:10026800D169490928BF04302AE0132905D2EFF3E0
:1002780009805FEADE0120D3EDE714291CD20020B3
:10028800EFF310821043EFF3118212021043EFF3E1
:10029800138212041043EFF314825FEADE0128BFD1
:1002A80042F002025FEA5E112CBF22F0040242F023
:1002B80004021206104303E000E001E00020FFE71B
:1002C8001860586840F40020586050E7586840F4B7
:1002D8000020586058680003FCD418685FEADE0202
:1002E8002CBFEFF30982EFF30882042902D242F807
:1002F800210061E0052901D204465DE0062901D20A
:10030800054659E0072901D2064655E0082901D2D9
:10031800074651E0092901D280464DE00A2901D259
:10032800814649E00B2901D2824645E00C2901D2D9
:10033800834641E00E2901D210613DE00F2901D228
:10034800506139E0102901D2906135E0112901D2BC
:10035800D06131E0122900D22EE0132900D22BE01F
:10036800142927D20106090E81F310880104090E09
:1003780081F311880102090E81F31388010E8808A0
:100388002CBF4EF0040E2EF0040E21F00201C80816
:100398002CBF2EF0100E4EF0100EEFF31480C00894
:1003A8002CBF41F0040121F0040181F31488BFF34C
:1003B8006F8F01E0FFE7FFE7DCE600BF7BB972B9AA
:1003C8000029BEBF00204FF0004106E008BF00280A
:1003D8001CBF6FF000414FF0FF3000F057B8ADF18F
:1003E800080C6DE904CE002909DB002B1ADB00F0AC
:1003F8004FF8DDF804E0DDE9022304B0704740421D
:1004080061EB4101002B1BDB00F042F8DDF804E052
:10041800DDE9022304B0404261EB4101524263EB43
:1004280043037047524263EB430300F031F8DDF8B1
:1004380004E0DDE9022304B0404261EB410170476A
:10044800524263EB430300F023F8DDF804E0DDE9F2
:10045800022304B0524263EB4303704753B94AB9CD
:10046800002908BF00281CBF4FF0FF314FF0FF30B4
:1004780000F00CB8ADF1080C6DE904CE00F008F8F6
:10048800DDF804E0DDE9022304B07047704700BFDF
:100498002DE9F04786468C460846089E1546744660
:1004A8001946002B40F0C1808542B2FA82F245D944
:1004B8004AB1C2F1200300FA02FC954094402EFA9A
:1004C80003F343EA0C0C4FEA154EA8B2230CBCFB0D
:1004D800FEF80EFB18CC08FB00F943EA0C439945DB
:1004E80028D9EB1808F1FF3704D2994502D9A8F1A9
:1004F80002072B44A3EB0903A4B2B3FBFEFC0EFBDB
:100508001C330CFB00F044EA0344A04214D92C1914
:100518000CF1FF3304D2A04202D9ACF102032C44FF
:10052800241A43EA07401EB1D440002334607360A4
:10053800BDE8F0874746DDE76346F1E792BB431B1A
:1005480001214FEA154EAFB2200CB3FBFEFC0EFBA7
:100558001C330CFB07F840EA0343984561D9EB18B4
:100568000CF1FF3004D2984502D9ACF102002B44BB
:10057800A3EB0803A4B2B3FBFEFC0EFB1C330CFB7D
:1005880007F744EA0344A7424DD92C190CF1FF336D
:1005980004D2A74202D9ACF102032C44E41B43EA7B
:1005A8000040C0E7C2F120039540944020FA03F1CF
:1005B8002EFA03F34FEA154E9040AFB20343B1FB56
:1005C800FEFC0EFB1C10190C0CFB07F841EA00415D
:1005D800884522D969180CF1FF3004D2884502D920
:1005E800ACF102002944A1EB08019BB2B1FBFEFC6F
:1005F8000EFB1C110CFB07F743EA01439F420ED97F
:10060800EB180CF1FF3104D29F4202D9ACF1020180
:100618002B44DB1B41EA004193E76046E3E7614670
:10062800F7E76046A4E76346B8E7834206D916B9F8
:10063800002108467CE7C6E900E0F9E7B3FA83F74A
:100648008FB9834201D3724508D8BEEB020460EB30
:10065800030301209C461EB9002169E73846FAE7E2
:10066800C6E9004CF8E7C7F1200CBB400EFA07F5C5
:1006780022FA0CF42EFA0CF1BA401C4320FA0CF3BF
:10068800B8404FEA144901431FFA84FEB3FBF9F856
:1006980009FB18300B0C08FB0EFA43EA00439A4595
:1006A80040D9E31808F1FF3004D29A4502D9A8F1DD
:1006B80002002344A3EB0A0389B2B3FBF9F809FB50
:1006C800183308FB0EFE41EA03418E452CD9611808
:1006D80008F1FF3304D28E4502D9A8F10203214460
:1006E80043EA0040A1EB0E01A0FB02984145CE462B
:1006F800434602D306D14D4504D20138B9EB020E68
:1007080068EB0403002EA7D0B5EB0E0261EB0301E2
:1007180001FA0CFC22FA07F3F9404CEA0303C6E994
:10072800003199E74046C5E74346D9E710F8012B61
:1007380011F8013B012A28BF9A42F7D0D01A704716
:10074800034611F8012B03F8012B002AF9D1704751
:10075800034613F8012B002AFBD1181A01387047F9
:100768002DE9F04F8FB00B900D4617464CF059FD10
:100778004B0143EAD0634401241A63EB01039B0055
:1007880043EA9473A400241843EB0101C90041EA29
:100798005471C4F3103444EA41444FEAD138012D6E
:1007A80068D07D6829464048FFF7C0FF28B1294630
:1007B8003E48FFF7BBFF002866D139A3D3E90023E1
:1007C80020464146FFF7FAFD0C900E4634A3D3E9C4
:1007D800002320464146FFF7F1FD15461C46344AE2
:1007E800002328462146FFF7E9FD07460D91304AC8
:1007F800002328462146FFF7E1FD15461C464EF624
:100808006022002328462146FFF7D8FD8146884606
:100818004EF66022002328462146FFF7CFFD1546F5
:100828001C464FF47A72002328462146FFF7C6FD7E
:1008380083468A464FF47A72002328462146FFF7FA
:10084800BDFDCDE90823CDF818B0CDF81CA0CDF832
:100858001090CDF8148002970D9B03930C9B009386
:100868000196144A08210B9835F062FA00200FB05F
:10087800BDE8F08F0094CDF804800F4A08210B984A
:1008880035F056FA0020F2E72B460C4A01210B9866
:1008980035F04EFA6FF00400E9E700BFAFF30080CF
:1008A800005C260500000000D4EB0400D8EB04002F
:1008B80080EE3600FCEB0400C0EB0400E4EB04001F
:1008C800F0B583B000AF7F497F4836F005FE80B1B0
:1008D80004467E4B1B6813F0070F03D120460C37E4
:1008E800BD46F0BD03467A4A0121784834F060FCE1
:1008F800F4E77849744836F0EFFD044658B1734B75
:100908001B6813F0070FE9D00346734A01216F48AB
:1009180034F04EFCE2E771496B4836F0DDFD0446E1
:1009280058B16A4B1B6813F0070FD7D003466C4ABF
:100938000121664834F03CFCD0E76A49624836F049
:10094800CBFD044658B1614B1B6813F0070FC5D0A7
:100958000346654A01215D4834F02AFCBEE7634935
:10096800594809F091FD044660B9614D614B9D42BB
:100978006FD201226968544809F094FE044668B9A8
:100988001035F3E7514B1B6813F0070FA6D0034649
:10099800594A01214D4834F00BFC9FE74B4B1B682B
:1009A80013F0070F9AD069686E4600233B71022343
:1009B8007B718AB06D4615F1100215D012201AB15C
:1009C800042801DD4D4B6B6100233B7002237B70D3
:1009D800BAB10346082800DDA9610C2B00DDEC61E3
:1009E80005F1200300210AE06FF00040E7E701F17C
:1009F800080CBC441CF808CC03F801CB01310129D0
:100A0800F5D9112822DD122342B1042139710021C0
:100A18007971B9710121F9717868286100216FF342
:100A280000016FF341016FF382016FF3C5010120EB
:100A380060F38811C3F30A0363F353216FF31F5163
:100A48000023224803F008F9B54647E76FF01B0377
:100A5800DAE700231A4619461B4836F07AFC0446A2
:100A680060B11A4B1B6813F0070F3FF437AF03460A
:100A7800234A0121154834F09BFB2FE7124808F060
:100A8800AFF9044658B1114B1B6813F0070F3FF438
:100A980025AF1C4A01210D4834F080FB1EE70A48A7
:100AA80008F0EAF9044600283FF418AF074B1B6822
:100AB80013F0070F3FF412AF134A0121034834F033
:100AC8006DFB0BE790000020E80E0020140C0020BE
:100AD80038E204006000002068E2040038000020CA
:100AE8009CE204001C000020CCE20400000000206E
:100AF800480F0020780F0020F4E2040018E30400F7
:100B080034E3040054E3040078E3040008B5084B18
:100B18001A6802F00702022A02D8064B186808BDB4
:100B28000B46054A0321024834F042FBF5E700BFB3
:100B3800080C0020C89F0020ACE304001346304A8C
:100B4800106800F00700022859D9F0B583B000AF4B
:100B58008C466C4600223A7102227A7188B0EE46C1
:100B68001EF1100214D00E2522B1042D02DD2549F4
:100B7800CEF814100021397002217970AAB1082D1D
:100B880002DD2149CEF818100EF11C0000210AE000
:100B98006FF00045E8E701F108063E4416F8086CD6
:100BA80000F8016B01310129F5D90D2D24DD0E2541
:100BB8004AB10321397100217971B9710121F971A3
:100BC8007868CEF8100000216FF300016FF341013F
:100BD8006FF382016FF3C501032060F38811C5F339
:100BE8000A0565F353216CF31F51054803F034F8E7
:100BF800A5460C37BD46F0BD6FF01B05D8E770471A
:100C0800080C00204C410500BCE30400314B1B6874
:100C180003F00703022B5CD990B583B000AFF1B99C
:100C28002D496C4600233B7102237B7188B0EC464A
:100C38001CF1100215D00E2022B1042802DD274B2A
:100C4800CCF8143000233B7002237B70B2B1082823
:100C580001DDCCF818100CF11C0300210CE0204930
:100C6800DFE76FF00040E7E701F1080EBE441EF829
:100C780008EC03F801EB01310129F5D90D2825DD30
:100C88000E234AB10321397100217971B97101210B
:100C9800F9717868CCF8100000216FF300016FF348
:100CA80041016FF382016FF3C501032060F38811DE
:100CB800C3F30A0363F353216FF31F51002305485D
:100CC80002F0CAFFA5460C37BD4690BD6FF01B0366
:100CD800D7E77047080C0020C4E30400E4E30400ED
:100CE800D4E30400364B1B6803F00703022B65D9D5
:100CF800B0B582B000AF31B332496C4601233B71C5
:100D080003237B718AB0EE461EF110021DD04FF00E
:100D1800120C52B16346BCF1040F02DD2A4DCEF825
:100D28001450082B01DDCEF8180001233B70032373
:100D38007B70BAB1BCF10C0F01DDCEF81C100EF1BE
:100D4800200300210CE02149D7E76FF0004CE0E7D1
:100D580001F10800384410F8080C03F8010B0131C0
:100D68000129F5D9BCF1110F25DD12234AB104215F
:100D7800397100217971B9710121F9717868CEF85A
:100D8800100000216FF300016FF341016FF382013E
:100D98006FF3C501032060F38811C3F30A0363F3FB
:100DA80053216FF31F510023054802F055FFA54654
:100DB8000837BD46B0BD6FF01B03D7E7704700BFCB
:100DC800080C0020681B050008E40400FCE304008C
:100DD80010B582B01446094B1A6802F00702022ABD
:100DE80003D8074B1C6002B010BD00940B46054A9F
:100DF8000321024834F0E7F9F3E700BF080C0020AC
:100E0800C89F002028E4040010B514484BF0BAFC31
:100E180048B1134B3F221349104837F084FC04466D
:100E280078B9204610BD104B1B6813F0070F02D18C
:100E38006FF00404F5E70D4A01210B4834F0AEF9D0
:100E4800F6E7094B1B6813F0070FEAD00346084A78
:100E58000121054834F0ACF9E3E700BFDCDA04000F
:100E6800B8000020C0E10400080C00203CE40400A5
:100E780054E4040008B5084B1A6802F00702022A75
:100E880002D8064B186808BD0B46054A03210248DC
:100E980034F08EF9F5E700BF100C0020CC9F00203D
:100EA800ACE30400314B1B6803F00703022B5CD949
:100EB80090B583B000AFF1B92D496C4600233B7162
:100EC80002237B7188B0EC461CF1100215D00E206D
:100ED80022B1042802DD274BCCF8143000233B70E4
:100EE80002237B70B2B1082801DDCCF818100CF190
:100EF8001C0300210CE02049DFE76FF00040E7E722
:100F080001F1080EBE441EF808EC03F801EB0131AC
:100F18000129F5D90D2825DD0E234AB103213971A0
:100F280000217971B9710121F9717868CCF8100044
:100F380000216FF300016FF341016FF382016FF33A
:100F4800C501032060F38811C3F30A0363F3532137
:100F58006FF31F510023054802F07EFEA5460C37AB
:100F6800BD4690BD6FF01B03D7E77047100C0020FB
:100F7800C4E30400E4E30400D4E30400F0B583B060
:100F880000AF1C46544B1B6803F00703022B3FD9E4
:100F98006E468AB06B4613F1100C5ED01420BCF17B
:100FA800000F0FD00546042803DDDFF830E1C3F851
:100FB80014E0082D00DD99610C2D00DDDA61102D9B
:100FC80000DD1C6213284BDD1425BCF1000F07D08F
:100FD80005223A7100227A71BA71FA71786818613B
:100FE80000216FF300016FF341016FF382016FF38A
:100FF800C501032363F38811C5F30A0565F353217B
:101008006FF31F5100236246334802F025FEB546B0
:10101800314B1A6802F00702022A56D96D4600239E
:101028003B7102237B7188B0EC461CF110021AD088
:101038000E2022B1042802DD294BCCF814300023FD
:101048003B7002237B70DAB1082802DD254BCCF80F
:1010580018300CF11C01002310E06FF000409EE7EF
:101068006FF01B05B1E76FF00040E2E703F10806F7
:101078003E4416F8086C01F8016B0133012BF5D9D1
:101088000D2826DD0E234AB103213971002179711B
:10109800B9710121F9717868CCF8100000216FF35B
:1010A80000016FF341016FF382016FF3C501032063
:1010B80060F38811C3F30A0363F3532164F31F51E8
:1010C8003B6A054802F0C8FDAD4600200C37BD4616
:1010D800F0BD6FF01B03D6E7100C00208CE4040071
:1010E8004C410500A0E404002DE9F04184B002AFB2
:1010F80006460C461546314B1B6803F00703022BC6
:101108004DD9E84600233B7102237B7188B002A9C0
:1011180011F1100212D00E201AB1042801DD284B5B
:101128004B6100233B7002237B70A2B1082801DDCC
:10113800244B8B6101F11C0C00230AE06FF0004086
:10114800EAE703F1080EBE441EF808EC0CF801EBC0
:101158000133012BF5D90D282CDD0E2342B10320D4
:10116800387100207871B8710120F87178680861C9
:1011780000216FF300016FF341016FF382016FF3F8
:10118800C501032060F38811C3F30A0363F35321F5
:1011980064F31F512B46094802F05EFDC5460095D1
:1011A8002346002202213046FFF7E8FE0837BD46F5
:1011B800BDE8F0816FF01B03D0E700BF100C0020E2
:1011C8004C410500BCE30400F0B583B000AF1C46F9
:1011D800544B1B6803F00703022B3FD96E468AB0B5
:1011E8006B4613F1100C5ED01420BCF1000F0FD029
:1011F8000546042803DDDFF830E1C3F814E0082DC4
:1012080000DD99610C2D00DDDA61102D00DD1C6216
:1012180013284BDD1425BCF1000F07D005223A71C5
:1012280000227A71BA71FA717868186100216FF337
:1012380000016FF341016FF382016FF3C5010323CE
:1012480063F38811C5F30A0565F353216FF31F5142
:1012580000236246334802F0FFFCB546314B1A685A
:1012680002F00702022A56D96D4600233B71022379
:101278007B7188B0EC461CF110021AD00E2022B106
:10128800042802DD294BCCF8143000233B700223DC
:101298007B70DAB1082802DD254BCCF818300CF148
:1012A8001C01002310E06FF000409EE76FF01B0563
:1012B800B1E76FF00040E2E703F108063E4416F894
:1012C800086C01F8016B0133012BF5D90D2826DDD7
:1012D8000E234AB10321397100217971B9710121B5
:1012E800F9717868CCF8100000216FF300016FF3F2
:1012F80041016FF382016FF3C501032060F3881188
:10130800C3F30A0363F3532164F31F513B6A05488F
:1013180002F0A2FCAD4600200C37BD46F0BD6FF0D0
:101328001B03D6E7100C0020A8E404004C4105007C
:10133800A0E40400364B1B6803F00703022B65D9B1
:10134800B0B582B000AF31B332496C4601233B716E
:1013580003237B718AB0EE461EF110021DD04FF0B8
:10136800120C52B16346BCF1040F02DD2A4DCEF8CF
:101378001450082B01DDCEF8180001233B7003231D
:101388007B70BAB1BCF10C0F01DDCEF81C100EF168
:10139800200300210CE02149D7E76FF0004CE0E77B
:1013A80001F10800384410F8080C03F8010B01316A
:1013B8000129F5D9BCF1110F25DD12234AB1042109
:1013C800397100217971B9710121F9717868CEF804
:1013D800100000216FF300016FF341016FF38201E8
:1013E8006FF3C501032060F38811C3F30A0363F3A5
:1013F80053216FF31F510023054802F02DFCA54629
:101408000837BD46B0BD6FF01B03D7E7704700BF74
:10141800100C0020681B050008E40400FCE304002D
:1014280010B582B01446094B1A6802F00702022A66
:1014380003D8074B1C6002B010BD00940B46054A48
:101448000321024833F0BFFEF3E700BF100C002071
:10145800CC9F002028E4040010B514484BF092F902
:1014680048B1134B21221349104837F05CF9044660
:1014780078B9204610BD104B1B6813F0070F02D136
:101488006FF00404F5E70D4A01210B4833F086FE9E
:10149800F6E7094B1B6813F0070FEAD00346084A22
:1014A8000121054833F084FEE3E700BFC8DA0400F1
:1014B800DC00002000E20400100C00203CE40400E2
:1014C80054E4040008B500228260034A0261034A1A
:1014D800C26007F021FA08BDD09F0020CCE40400C8
:1014E8002DE9F04184B000AF03460020586107F1B0
:1014F8000C0102F09FFE04464E4B1B6803F00703E5
:10150800022B67D9FB68D3F804E0DA6811689E6893
:101518006D4602233B7204237B728CB0EC461CF1AF
:10152800100224D01A2082B10346042803DDDFF814
:101538000881CCF81480082B03DD4FF00008CCF8A4
:1015480018800C2B01DDCCF81CE002233B7104232E
:101558007B71D2B10346102801DDCCF82010142B82
:1015680001DDCCF824600CF1280300210BE06FF0BA
:101578000040D8E701F1100606EB070E1EF80CEC48
:1015880003F801EB01310129F4D9192829DD1A23BF
:101598004AB10621397200217972B9720121F972B2
:1015A800B868CCF8100000216FF300016FF3410117
:1015B8006FF382016FF3C501032060F38811C3F351
:1015C8000A0363F353216FF31F510023194802F0F4
:1015D80043FBAD46002C07DB20461037BD46BDE86F
:1015E800F0816FF01B03D3E7124B1B6803F007036E
:1015F800022B11D8F8688268002133F0ACFE04464B
:101608000C4B1B6803F00703022B0BD8002CE3DA02
:10161800F86833F09FFEDFE7084A0321054833F0F6
:10162800BDFDE7E70346064A0321024833F0C0FD43
:10163800ECE700BF0C0C0020D4E40400F8E404003C
:10164800140B05002DE9F043ABB000AF0023C7F839
:10165800A030C7F8A430A348FFF742FF041E34DBCC
:10166800A048FFF72FFF041E3FDB40F26760002110
:1016780030F0DCFD9C4B1B6803F00703022B71D98B
:10168800984BD9686E4600233B7202237B728AB05E
:10169800EC461CF1100233D0122022B1042802DDDE
:1016A800924BCCF8143000233B7102237B71A2B318
:1016B8000346082801DDCCF818100C2B01DDCCF806
:1016C8001C400CF12003002125E0874B1B6813F018
:1016D800070F04D12046AC37BD46BDE8F083844AE5
:1016E8000121814833F05AFDF4E77F4B1B6813F062
:1016F800070FEFD07F4A01217B4833F04FFDE9E720
:101708006FF00040C9E701F1A8043C4414F8A44C68
:1017180003F8014B01310129F5D9112868DD12239D
:101728004AB10421397200217972B9720121F97222
:10173800B868CCF8100000216FF300016FF3410185
:101748006FF382016FF3C501032060F38811C3F3BF
:101758000A0363F353216FF31F510023624802F019
:101768007BFAB54607F190015E4BD86807F084F81C
:10177800041E40DB5C4B1B6803F00703022B78D97F
:10178800584BD3F80C90D7F89080D7F894E0D7F856
:1017980098C0D7F89C106E4600233B7202237B72D8
:1017A8008CB06C4614F1100232D01E201AB10428F5
:1017B80001DD514B636100233B7102237B71A2B3AE
:1017C8000346082801DDC4F818900C2B01DDC4F885
:1017D8001C80102B01DDC4F820E0142B01DDC4F8B7
:1017E80024C0182B00DDA16204F12C0300211AE0AB
:1017F8006FF01B0394E73C4B1B6813F0070F3FF493
:1018080069AF23463D4A0121374833F0D1FC61E7EF
:101818006FF00040CAE701F1A80CBC441CF8A4CC46
:1018280003F801CB01310129F5D91D2853DD1E2309
:1018380042B10721397200217972B9720121F97216
:10184800B868206100216FF300016FF341016FF365
:1018580082016FF3C501032060F38811C3F30A0303
:1018680063F353216FF31F5100231F4802F0F4F96B
:10187800B5461C4BD96807F1A00006F0D1FE044616
:10188800194B1B6803F00703022B6AD9154BD9685B
:101898006E4600233B7202237B728AB0EC461CF131
:1018A80010021BD0122022B1042802DD144BCCF800
:1018B800143000233B7102237B716AB30346082866
:1018C80001DDCCF818100C2B01DDCCF81C400CF114
:1018D800200300211EE06FF01B03A9E76FF0004012
:1018E800E1E700BF04A200200C0C002048E504003A
:1018F80010E504002CE504006CE5040058E504003C
:10190800A8E5040001F1A80EBE441EF8A4EC03F8F3
:1019180001EB01310129F5D911282FDD12234AB134
:101928000421397200217972B9720121F972B868FB
:10193800CCF8100000216FF300016FF341016FF341
:1019480082016FF3C501032060F38811C3F30A0312
:1019580063F353216FF31F5100235B4802F07CF9B6
:10196800B546002C5ADA584B1B6813F0070F55D0B0
:10197800564A0121544833F011FC4FE06FF01B0325
:10198800CDE7514B1B6813F0070F04D107F1A000F6
:1019980006F04CFF9EE64E4A01214B4833F0FEFB11
:1019A800F4E7494B1B6803F00703022BEED9494AB9
:1019B8000321454833F0F2FBE8E74FF0440E4BE0D3
:1019C8006FF0004C56E002233B7004237B70002A22
:1019D80062D1BCF1150F73DD162342B105203871B1
:1019E80000207871B8710120F871786808616FF388
:1019F80000056FF341056FF382056FF3C5050321F9
:101A080061F38815C3F30A0363F353256FF31F5576
:101A1800002329462C4802F01FF9B546002CB5DBF7
:101A28008822002107F108004BF057FF07F1080151
:101A380007F1A00006F076FE041EA2DB7B7A002BDD
:101A4800AFD0214B1B6803F00703022BE6D93B7A82
:101A5800002BB2D14FF0460ED7F88C006E46022309
:101A68003B7104237B718AB0694611F11002A7D03B
:101A78004FF0160C002AA6D06346BCF1040F03DD14
:101A8800DFF85480C1F81480082B01DDC1F818E094
:101A98000C2B98DDC86196E7BCF1100F02DD07F149
:101AA80009030B6201F124030020012891D800F1F9
:101AB800A80EBE441EF8A8EC03F801EB0130F4E7C9
:101AC8006FF01B0389E700BF0C0C0020B8E5040089
:101AD800D4E50400F8E5040008E60400F0B583B096
:101AE8000F460026009633460A225F2131F09CFEFD
:101AF80004462BF027FC054639462CF0F9F802215C
:101B0800284645F062F8204616F096FB042145F079
:101B18005CF820462BF016FC05460C492CF0E8F83A
:101B28000421284645F051F83246032128463FF063
:101B380025FA802120463CF054FD02231A46194616
:101B480020461EF0B1FC204603B0F0BD44E6040078
:101B580070B582B026F0E4FC0446214B1D6826F0DF
:101B6800DFFCA8470146204614F058FB31F056FE2A
:101B78000024009401236422114631F055FE0546E5
:101B880002231A4621461EF08FFC16492846FFF705
:101B9800A5FF0646284631F080FE134B18600094D6
:101BA80023460E2231463EF09FF810484AF0EAFDDF
:101BB80038B127F067FF0D4831F027FE002002B04A
:101BC80070BD0B4B1B6813F0070F02D16FF00400B8
:101BD800F5E7084A0121064833F0E0FAF6E700BFC6
:101BE8000001002050E6040028A2002054DB040075
:101BF800400B002058E6040038B50C4608463FF074
:101C0800D2F9002836D0B54920463CF052FF0028CA
:101C18007AD020463FF0C7F90546B1493CF049FF64
:101C2800002835D128463FF0BEF9AD493CF041FFC8
:101C380000283CD120463FF0DDF938B920463FF076
:101C4800B2F9A8493CF035FF00283ED120463FF0C4
:101C5800D1F9012841D0A44D29680022103120462D
:101C68003EF066FF29684FF48032303120463EF05E
:101C78005FFF55E09C4D0022296820463EF058FF42
:101C880029684FF48032303120463EF051FF47E05A
:101C9800284645F0ABFF944D2968944A20313EF020
:101CA80047FF0022296820463EF042FF38E08E4D6B
:101CB8000022296820463EF03BFF29684FF4803215
:101CC800303120463EF034FF2AE0874B1968002265
:101CD800183120463EF02CFF22E020463FF063F901
:101CE80080493CF0E6FE0028B5D07F4D29680022E7
:101CF800183120463EF01CFF29684FF480323031FD
:101D080020463EF015FF0BE0794920463CF0D1FE15
:101D180038B1754B19680022203120463EF008FF83
:101D280038BD744920463CF0C4FE70B320463FF0ED
:101D38003AF971493CF0BDFEA8B920463FF033F9A5
:101D480067493CF0B6FEB8B9674D296800221031E2
:101D580020463EF0EDFE29684FF4A02218312046B7
:101D68003EF0E6FEDCE7604B19684FF4A02218311C
:101D780020463EF0DDFED3E75B4B19684FF4A02206
:101D8800183120463EF0D4FECAE75C4920463CF0B4
:101D980090FE70B1544D29680022183120463EF05B
:101DA800C7FE29684FF40032203120463EF0C0FEBD
:101DB800B6E7534920463CF07CFEA8B14A4D296855
:101DC8000022183120463EF0B3FE29684FF4003255
:101DD800203120463EF0ACFE29684FF440322831CD
:101DE80020463EF0A5FE9BE7464920463CF061FEB2
:101DF80078B13D4D29684FF48032303120463EF0AD
:101E080097FE29684FF4A022183120463EF090FE34
:101E180086E73D4920463CF04CFE70B1324D2968BA
:101E28004FF40032183120463EF082FE2968374AC6
:101E3800203120463EF07CFE72E7354920463CF0D2
:101E480038FE70B1284D29680022183120463EF02E
:101E58006FFE29684FF44032283120463EF068FE74
:101E68005EE72C4920463CF024FE18B31E4D296835
:101E78000022103120463EF05BFE29684FF4803284
:101E8800303120463EF054FE29684FF4A022183124
:101E980020463EF04DFE29684FF4C02220312046EE
:101EA8003EF046FE29684FF4E022203120463EF0FD
:101EB8003FFE35E7184920463CF0FBFD70B30A4D5C
:101EC80029680022183120463EF032FE29684FF476
:101ED8008022203120463EF02BFE21E7B434050055
:101EE800EC5205004053050054A2002001000500F3
:101EF800A09705004C9805009852050084970500A6
:101F0800509D0500889D05009C9805000100020071
:101F18006C9D0500984B0500349D0500B34920468B
:101F28003CF0C7FD38B1B24B196800221031204689
:101F38003EF0FEFDF4E6AF4920463CF0BAFDD8B1CC
:101F4800AB4D29680022103120463EF0F1FD29688A
:101F58004FF48032303120463EF0EAFD29684FF4D4
:101F68008022183120463EF0E3FD2968A24A20313C
:101F780020463EF0DDFDD3E6A04920463CF099FD21
:101F880078B39B4D29680022183120463EF0D0FDD9
:101F980029680022083120463EF0CAFD296800223F
:101FA800383120463EF0C4FD29684FF40032203114
:101FB80020463EF0BDFD29684FF4003238312046F6
:101FC8003EF0B6FD29684FF44032283120463EF0F5
:101FD800AFFD29684FF44032403120463EF0A8FD5D
:101FE8009EE6874920463CF064FD08B3804D296889
:101FF8000022183120463EF09BFD29680022083156
:1020080020463EF095FD29680022383120463EF0F2
:102018008FFD29684FF40032203120463EF088FDBC
:1020280029684FF40032383120463EF081FD77E6CA
:10203800744920463CF03DFD08B36D4D29680022E7
:10204800183120463EF074FD2968002208312046E8
:102058003EF06EFD29680022383120463EF068FDCA
:1020680029684FF44032283120463EF061FD296846
:102078004FF44032403120463EF05AFD50E6624966
:1020880020463CF016FD38B1594B1968002218312A
:1020980020463EF04DFD43E65C4920463CF009FDF4
:1020A800A0B1534D29680022103120463EF040FD72
:1020B80029684FF48032303120463EF039FD2968D6
:1020C800534A483120463EF033FD29E6514920461F
:1020D8003CF0EFFC38B1464B196800221831204615
:1020E8003EF026FD1CE64C4920463CF0E2FC98B147
:1020F8003F4D0022296820463EF01AFD29684FF41A
:10210800A022103120463EF013FD2968434A1831B9
:1021180020463EF00DFD03E6414920463CF0C9FC4F
:1021280098B9404920463CF0C4FC00287FF4F8AD3B
:102138003D4920463CF0BDFCB0B12D4B196800224A
:10214800203120463EF0F4FCEAE5294D29680022BA
:10215800183120463EF0ECFC29684FF480323031CB
:1021680020463EF0E5FCDBE5304920463CF0A1FC8A
:1021780098B92F4920463CF09CFCB0B11C4D296809
:102188000022183120463EF0D3FC29684FF4E022A3
:10219800203120463EF0CCFCC2E5154B19680022E0
:1021A800183120463EF0C4FCBAE5224920463CF0EE
:1021B80080FC68B10E4D0022296820463EF0B8FC2C
:1021C80029684FF48032303120463EF0B1FCA7E553
:1021D800194920463CF06DFC80B3054B19684FF453
:1021E8008032303120463EF0A3FC99E5EC99050099
:1021F80054A20020D099050001000400689705004A
:10220800D0520500B44B050060520500749E0500CD
:10221800020007003C470500585005000100050072
:10222800C850050090500500AC50050098520500B4
:10223800B4520500245305000853050011492046EF
:102248003CF037FC70B1104D296800221831204647
:102258003EF06EFC29684FF44032183120463EF0BB
:1022680067FC5DE5094920463CF023FC00283FF463
:1022780057AD054B19680022183120463EF058FC2E
:102288004EE500BFB44B050054A200207450050071
:1022980008B5044B1B7813B127F0F2F808BD46F0D7
:1022A80043FDFBE7A6040320F8B59F4C20683030B7
:1022B800FFF7EEFF2068FF21303046F002FE256868
:1022C800122026F0BBFC014605F1300046F0F3FD74
:1022D80020680221303046F0A6FD2068FFF7D8FFBD
:1022E800FF21206846F0EDFD2F26002166F3070147
:1022F8001B2565F30F2165F3174141F07F412068E5
:1023080046F0D9FD27680221122026F001FD01467A
:10231800384646F05AFE20680830FFF7B9FF2068B3
:102328000021083046F0CDFD20681030FFF7B0FFDF
:102338002068FF21103046F0C4FD2068002166F3B4
:10234800070165F30F2165F3174141F07F41103014
:1023580046F0B1FD20680121103046F018FE2068D3
:10236800002166F3070165F30F2165F3174141F07A
:102378007F41103046F011FE20680221103046F0EF
:1023880012FE2068002166F3070165F30F2165F34B
:10239800174141F07F41103046F011FE2068183097
:1023A800FFF776FF2068FF21183046F08AFD256880
:1023B8000221122026F068FC014605F1180046F0BB
:1023C8007AFD20680121183046F0E1FD25680221D8
:1023D800122026F059FC014605F1180046F0DDFDF3
:1023E80020680221183046F0DEFD256802211220FF
:1023F80026F04AFC014605F1180046F0E0FD206889
:102408002030FFF745FF2068FF21203046F059FDB6
:102418002568122026F012FC014605F1200046F03E
:102428004AFD20680121203046F0B1FD25681220C0
:1024380026F004FC014605F1200046F0AEFD2068B8
:102448000221203046F0AFFD2568122026F0F6FB69
:10245800014605F1200046F0B2FD20682830FFF75C
:1024680017FF2068FF21283046F02BFD2568022140
:10247800122026F04DFC014605F1280046F01BFD10
:1024880020680121283046F082FD256802211220AB
:1024980026F03EFC014605F1280046F07EFD206846
:1024A8000221283046F07FFD25680221122026F0FF
:1024B8002FFC014605F1280046F081FD20683830E0
:1024C800FFF7E6FE20680621383046F06CFD2068EC
:1024D8004030FFF7DDFE20680521403031F000FA7A
:1024E80020684830FFF7D4FE20680421483046F0C1
:1024F8000CFD25680221122026F00AFC014605F190
:10250800480046F0F0FC20680221483046F0F7FC0D
:1025180020680021483046F0D4FC20684FF4FA7156
:10252800483046F082FDF8BD54A20020024B1868DE
:10253800003818BF01207047FCC0002010B50446C1
:10254800FFF7F4FFC0B1124BDC60124A9A61DA61FE
:102558001A62114A1A60FFF7A7FE2CB120463AF01A
:1025680071FF0B4B834202D1002017F0B9FF0B4BD0
:1025780001221A70064810BD084B00221A7050201C
:1025880026F060FE064B1860064B1860DBE700BFBC
:102598002CA20020B4540500011C0000A60403204E
:1025A800FCC0002054A20020B0B586B000AF05469C
:1025B8003BF00EF8044628463BF006F81C2C02D0E7
:1025C8001837BD46B0BD102207F108012CF074FB86
:1025D8002C4B1B6803F00703022BF1D96D4600232F
:1025E8003B7102237B7188B06C4614F1100213D042
:1025F8000E201AB1042801DD234B636100233B70D0
:1026080002237B70AAB1082802DD07F10803A36141
:1026180004F11C0300210AE06FF00040E9E701F132
:10262800180CBC441CF818CC03F801CB0131012963
:10263800F5D90D2822DD0E2342B10321397100217D
:102648007971B9710121F9717868206100216FF3FE
:1026580000016FF341016FF382016FF3C50103209D
:1026680060F38811C3F30A0363F353216FF31F5117
:102678000023044801F0F0FAAD46A1E76FF01B0310
:10268800DAE700BFC40B00208CE6040010B5184B35
:102698001B6803F00703022B23D81649164B18684A
:1026A80025F04CFB2CF054F80446002213492CF07A
:1026B8005BF80321204648F06BFE42F264021146A3
:1026C80020463CF0C5FE00231A46092120463CF06E
:1026D800E9FE00231A460A49204613F061FE00204D
:1026E80010BD084A0321024832F058FDD5E700BF63
:1026F800C40B0020C0E6040028A20020C4E60400A1
:10270800B1250000A0E604002DE9F04106460F4679
:10271800154600F0ABF80446C3681BB943691A783C
:10272800002A54D10023E360616857F821306361BF
:10273800B14231DA5A1C62611A782D2A2CD19A1CBE
:1027480062615A78A2602D2A2ED04AB9394B63614A
:102758002D2128464AF0F3FF002832D02D23A3600C
:10276800D4F80880414628464AF0E9FFB8F13A0F04
:1027780032D0002830D043783A2B38D00023236158
:1027880063691B7813B9636801336360204600F0FE
:1027980053F8A068BDE8F081264B6361204600F03D
:1027A8004BF84FF0FF30F5E79B78002BCDD1013186
:1027B8006160204B6361204600F03EF84FF0FF3027
:1027C800E8E7204600F038F84FF0FF30E2E75A1CFF
:1027D80042611B788360C3E763691B7813B9636838
:1027E80001336360204600F027F83F20D2E7636991
:1027F8001A7832B123610F4B6361636801336360F8
:10280800C4E7636801336360B34203DA57F82330DF
:102818002361F0E7074B63612B783A2B04D02046FD
:1028280000F00AF83F20B5E7204600F005F83A2006
:10283800B0E700BFF8EC04000268074B1A60426872
:10284800064B1A608268064B1A60C268054B1A600C
:102858000269054B1A6070472801002024010020F6
:1028680060A200205CA2002058A200200048704707
:102878000C0100202DE9F04184B0044688468268A6
:10288800B2F5004F12D308270837A2EBD707013754
:10289800B7FA87F7C7F120073B462146554831F07C
:1028A8006AFD554831F067FD00262FE00427EBE765
:1028B80055880AE0D268914212D0013304EBC20273
:1028C800A068B0F5004FF3D355684FEA550EBCEB3E
:1028D800550F00D8F446B0F5004FEBD2D288EAE79E
:1028E8009BB10122B240B0F5004F1AD3082101F183
:1028F800080002EBD002C1EBCC010191CDF800C079
:10290800013A31463D4831F036FD0136BE420ADA19
:10291800331D54F823100029F7D00A4600239C469B
:10292800CBE70421E3E7B8F1000F26D103AA02A9F7
:10293800204631F035FCA368DC00B3F5004F56D3D0
:1029480008231C440399631A029A9B1A60084FF4DF
:102958007A7505FB0300B0FBF4F0294CA4FB005486
:10296800E40804EB8405A0EB450001900094254899
:1029780031F001FD04B0BDE8F081234831F0FBFCE3
:10298800002518E073881EE02A225B08B1F5004F85
:1029980029D32158691AE8180190009129461B4843
:1029A80031F0E9FCA368AB42C0D0B3F5004F1CD3AB
:1029B800736805EB5305E80004EBC506A168B1F59B
:1029C800004FDFD3736813F0010FDDD1B1F5004F6D
:1029D80005D372685208012A03D02D22D5E72D228B
:1029E800D3E72E22D1E7215AD4E77388E1E70423FD
:1029F800A7E700BFF8E6040028E70400E4E70400BE
:102A0800CDCCCCCC40E8040000E8040010E8040079
:102A18002DE9F04F91B005920293134602F004029B
:102A28000092C3F3C20210F00303019340F02D8219
:102A380080468A460132041D00284FD0B8F1000FA5
:102A480005D0A4EB08030433534500F22182029B0E
:102A58005D1E019B04930693039300264FF0FF3BF2
:102A68000427B946B8F1000F01D0029B2360531E1A
:102A78000793002A40F35F81059B13F0020228D0D8
:102A88000120A4EB08018B081AB1B1F5007F80F092
:102A9800058203990F2900F20482B8F1000F00F0B3
:102AA8006281DBB201F140026A4402F8103C02F88C
:102AB80020BC002800F0538163F07F0301F140023D
:102AC8006A4402F8103C049B01330493039B0133CE
:102AD800039304340022CC4640463DE001F0070A47
:102AE8005444CAF1080AA9E7002634E0002632E077
:102AF800002630E00827BC462DE025292BD10BF114
:102B0800010B01260427BC4625E04729EED82A29CF
:102B180014D32A39C9B24FF0010E0EFA01F14FF65B
:102B2800DA7E11EA0E0F16D111F0625F40F0C18013
:102B380011F0010F40F08C8000260CE0252903D10C
:102B48000BF1FF3B002606E001D9002603E020290F
:102B580001D02329CCD11D466B1C6978002900F0CF
:102B68001B81002EC9D07A29BED84C29CDD34C3927
:102B78002E2961D80FF2040E5EF821F05F2B0000B9
:102B8800412C0000412C0000412C0000412C000089
:102B9800412C0000412C0000412C0000412C000079
:102BA800412C0000412C0000412C0000512C000059
:102BB800412C0000412C0000412C0000412C000059
:102BC800412C0000412C0000412C0000412C000049
:102BD800BB2C0000412C0000512C0000512C00009F
:102BE800BB2C0000BB2C0000BB2C00005F2B00009E
:102BF800512C0000FD2A0000412C00005F2B000032
:102C0800412C0000172D0000512C0000172D00004A
:102C1800412C0000412C00001F2D00004B2C00000F
:102C2800512C0000412C0000412C0000512C0000C8
:102C3800412C0000452C000000268CE70427BC46E8
:102C480089E70427BC4686E729786C2925D0002621
:102C58003C44013CB4FBF7F407FB04F4254620B1DF
:102C6800211A6144514500F21681002A58D1BCF15D
:102C7800040F00F08980BCF1080F40F015811A9903
:102C8800073121F0070101F108051A95D1E90089FA
:102C980008B1C4E9008908345DE713F8021C6C29FF
:102CA80003D000260427BC46D2E700260827BC46E6
:102CB800CEE729784C291AD01A99073121F0070153
:102CC80001F108061A96D1E90067073424F00704D1
:102CD80040B1211A0831514513D829784C2913D00D
:102CE800C4E90067083400260827BC4633E71A9968
:102CF800073121F0070101F108061A96D1E90067AA
:102D0800E3E76FF01B00BDE0C4E90067EAE70026CF
:102D18000427BC469CE7324600260427BC4697E7B2
:102D28002C46E14680461A9A111D1A9112680292A1
:102D3800079A1D4696E6624B029A9A4204D3614B63
:102D48009A420AD3002300E00023002B7FF494AEBC
:102D5800059B03F00202002093E60123F5E7069B9A
:102D680001330693B2E610B10AF1010AAEE6009B00
:102D780013B10AF1020AA9E60298FDF7E9FC00EB93
:102D88000A0303F1020AA1E61A990D1D1A950968AA
:102D980000B121600434DEE68046231AB3F5806F63
:102DA80080F0858090B1002202609B080370009B30
:102DB80083B1069BC370049B88F802301BBB019D3E
:102DC800DDF80C90DDF810B0029F3DE05344A3F10C
:102DD800080057E0069B4370EDE701339842EED9AF
:102DE80003F140026A4412F8101C12F9102C002A50
:102DF800F3DA01F07F01A4EB08020132524559D8F9
:102E080004F8011BE9E7019B0398E7E7009B43B33C
:102E180005F140036B4413F8203C04F8013B019E84
:102E2800A4EB080333440133534546D805F1400366
:102E38006B4413F8103C04F8013B324639462046EF
:102E48004AF024FD34440135A94519D9BBF1000FD6
:102E5800DCD005F140036B4413F9103C002BD5DAA4
:102E6800F1E705F140036B4413F8103C58F8237060
:102E7800002248F823203846FDF76AFC461CCFE7B5
:102E8800A4EB080011B0BDE8F08F6FF00D00F9E772
:102E98006FF01B00F6E76FF01B00F3E76FF015000B
:102EA800F0E76FF01500EDE76FF01500EAE76FF057
:102EB8001500E7E76FF01B00E4E76FF01B00E1E7A0
:102EC80018D90400D0A505002DE9F04F97B000AF40
:102ED8008346BA613B61D7F88030C3F3C0033B62D5
:102EE800F96011B931F0BFF9F8609BF80260B1469A
:102EF80036B1D7F8803013F0010F0DD1002300E070
:102F080000239BF803207A6242B1D7F8802012F0A0
:102F1800020F22D1002202E00123F2E7002202B9C7
:102F2800EBB19BF80050AA00BA60DBF804207A6184
:102F38000BEB8505BA69F2B1002B40F00581B9F1B8
:102F4800000F00F01081D7F8803013F0040F40F024
:102F58000E810020F8610646FAE00122DFE7BB692E
:102F68001BB13A69F96858469847FC6820465C37AF
:102F7800BD46BDE8F08FFC6853BB4D444FF00008D8
:102F8800D7F8803003F00503FB604FF0000AC7F85C
:102F98001080A046C7F81CB0D7F804B0BEE00444BF
:102FA800013501364E45EBD22A7800235BF8222002
:102FB8001946B86931F06CF9BAF1000FEFD0D7F8BB
:102FC80088309845EBD22AF8180008F10108E6E79E
:102FD8000026B046D7F884A0E4E700253B6A7BB911
:102FE800002D7DD0D7F8803013F0010F7DD1FB681C
:102FF800002B73D10223A8EB03088CE00125EDE731
:103008004946786931F08AF90028E9D0BB4B1B683A
:1030180013F0060F40D06C46002387F82C300223AB
:1030280087F82D308AB0694611F1100237D0122581
:103038001AB1042D01DDB24B4B61002387F828300B
:10304800022387F829306ABB112D44DD122362B1AF
:10305800042087F82C00002087F82D0087F82E0020
:10306800012087F82F00F86A08616FF3000B6FF3EF
:10307800410B6FF3820B6FF3C50B022161F3881BC1
:10308800C3F30A0363F3532B6FF31F5B0023594603
:103098009A4800F0E1FDA546A8F102083BE06FF070
:1030A8000045C5E72B46082D01DD786988610C2BA2
:1030B80001DDC1F81C9001F1200300200128C3D8CC
:1030C80000F1300C07F1280EF4441CF830CC03F85A
:1030D80001CB0130F2E76FF01B03B8E701238AE761
:1030E800D7F8803013F0020F15D000232246194676
:1030F800B86931F0CDF8D7F8843053B13B69D7F8C7
:103108008820934205D2D7F8842022F8130001338F
:103118003B61013880440AF1010A35467B6A9A45C9
:1031280010D22E4616F8029B6B78FA6952F82340A3
:10313800744B9C42FFF451AF734B9C42FFF45EAF5B
:1031480000254BE7444611E707F144000023FB61E3
:1031580018B14A4629464AF099FB4D444FF00008F9
:10316800C7F804901EE00020F8610646F0E7FE610B
:1031780007F134000026EBE700253B6A33BB002D3E
:103188003BD0D7F8803013F0010F26D0731C06F11E
:10319800300207F12801561806F8149CDEB208F12F
:1031A800010825467B6A98454AD22C4614F802AB9A
:1031B80095F801905BF82930524A9342DCD3524A81
:1031C800934201D30025D8E70125D6E7514678690F
:1031D80031F0A4F80028D2D0E1E7D7F8803013F016
:1031E800040FDCD0FA69531C303207F128010A4475
:1031F80002F8249CDBB2FB61D1E7D7F8803013F0EA
:10320800020F09D0731C06F1300207F12801561885
:1032180006F8149CDEB2C2E7F869431C00F13001DD
:1032280007F128028A1802F824AC02460232D2B208
:10323800FA6107F1580252FA83F303F8249CAEE7C7
:10324800D7F804909BF8003087F854309BF8013089
:10325800334487F85530D7F8803013F0020F0ED179
:10326800FB69C3F3470387F85730D7F8803013F06A
:10327800010F06D113F0040F48D1002302E0002308
:10328800F1E7002387F85630DBF800003863786DE3
:10329800CBF80000D7F810804246B9685846D7F8EE
:1032A80018A0D047041EFFF661AE386BCBF80000BB
:1032B800C7F810804246F96907F13400D047002862
:1032C80057DB04EB0008B96849447B6A01EB43010A
:1032D800D7F810904A46FB68591A2846D047041E6A
:1032E800FFF644AE08EB04054FF000087E62C7F80D
:1032F80020B05646D7F884B01FE000BF440B00202A
:1033080088E8040018D90400D0A50500FB69B9E7CE
:103318004FF0000A4A46012107F12C00B047002867
:1033280029DB0544534622464946304630F0B0FF73
:10333800002822DB054408F101087B6A984511D270
:1033480008F1300307F12802134413F8143C87F8F6
:103358002C303A6A52F82340BBF1000FD8D03BF822
:1033680018A0D7E73A6900210846BB6998472C4658
:10337800FCE50446FAE50446F8E50446F6E500BF30
:10338800014B1860704700BF2C01002080B505462E
:103398000E46174698462EF077FF03464AF0AEFAD7
:1033A8000446DFF8189049F800304246394630465E
:1033B800A84754F8090004F00BF800BF0800000003
:1033C8002DE9F04383B0044608461546238B13F0D5
:1033D800080F05D103F0070600230093019355E079
:1033E800012909D043F02003238385F31188BFF313
:1033F8006F8F03B0BDE8F08343F010032383F4E735
:10340800204631F008FB43E0D4F814904A46694658
:10341800204631F019FB4FF00008238B03F0070713
:10342800B74269D0A268002A66D0012243F0080397
:10343800238385F31188BFF36F8F002A64D1009B23
:103448002BB14B463A466946204631F076FBB8F137
:10345800000F02D034492046C0474FF02003EFF355
:10346800118583F31288BFF36F8F238B23F0080332
:103478002383238B13F0100F4CD023F010032383E6
:103488000120268B06F007060028AED00228B7D008
:103498000028AAD0013804282AD801A353F820F01C
:1034A80011340000F9340000BD340000D1340000AC
:1034B800E53400002369D3F800800621204631F066
:1034C80080FA4FF00009A8E72369D3F804800421A3
:1034D800204631F076FA4FF000099EE72369D3F8C9
:1034E80008800521204631F06CFA4FF0000994E776
:1034F8004FF00008C14690E7009A0AB1002295E70C
:10350800B8F1000F92D1B4E74A463946204631F067
:1035180060FA94E713F0200F04D023F020032383EC
:103528000220AEE70020ACE7714B030070B50646F9
:103538000D46084C04E02A46314620469847103488
:10354800054B9C4204D223689B69002BF3D1F6E714
:1035580070BD00BF10E0040020E004002DE9F04138
:10356800074605460AE007EA0807144B03EB06136B
:103578005B6804221968204600F03EFBD5B195FA35
:10358800A5F6B6FA86F60D4C04EB06140123B340F3
:103598006FEA030825EA0305237B002BEED03301ED
:1035A800064AD3581B69002BDDD0204698470028CF
:1035B800E4D1D8E73846BDE8F08100BF10E0040048
:1035C8002DE9F04180460F461E4BD3E8EF5F6A1C99
:1035D800C3E8E12F0029F8D1002D2FD11A4C00267D
:1035E80007E0636804221968204600F005FB0136ED
:1035F8001034164B9C4213D2237B002BF8D023683F
:10360800DB680BB12046984723681B69002BE8D07C
:10361800204698470028E4D00123B3401D43E6E73D
:10362800B8F1000F0BD055B12846FFF797FF0546B4
:10363800002FF8D00A2031F076FCF4E70025284660
:10364800BDE8F08178A2002010E0040020E004002A
:1036580008B5064B186018B1054B1B68092B00DC30
:1036680008BD04482EF0E8FFFAE700BF6CA200206E
:1036780074A20020B00D002008B502482EF0DCFF2F
:1036880008BD00BFB00D00200B7813F0040F17D150
:1036980010B54A680B88C3F382140978C1F3C201D4
:1036A80013F4E07F0ED07AB1084BD21A012342F30B
:1036B8008F0231F00AFD84428CBF0020012010BD2A
:1036C800012070470120FAE70120F8E7400B0020AD
:1036D80038B505460B4C00E010340B4B9C420FD21A
:1036E80063685B79002BF7D029462046FFF7CCFFAB
:1036F8000028F1D023681B68294620469847EBE745
:1037080038BD00BF10E0040020E0040030B589B0E7
:1037180000220F490F4849F0F4FD0F4D0022002305
:10372800CDE90623002404940E2303930294019404
:1037380000940A4B4FF440720949284649F044F96D
:10374800084928462EF0F4F9204609B030BD00BFDC
:1037580081360000F014002030100020813A00006B
:10376800D014032048E9040048B108B5054A1060A0
:10377800054B1960084600F029FD002008BD6FF0D0
:10378800150070473001002068A2002008B5054BDD
:103798001B781BB1034B01221A7008BD02482EF09A
:1037A8004BFFF7E7A7040320B00D0020094BD3E82F
:1037B800EF1F0131C3E8E21F002AF8D100B97047B2
:1037C800054BD3E8EF1F0139C3E8E21F002AF6D002
:1037D800F7E700BF70A2002074A20020044B00206D
:1037E8000146D3E8EF0FC3E8E21F002AF9D170477A
:1037F80070A2002038B5FFF7F1FF0546094C00E03C
:103808001034094B9C420BD263685B79002BF7D0CC
:1038180023685B68002BF3D0294620469847EFE7DA
:1038280038BD00BF10E0040020E00400034B186816
:103838000028D4BF00200120704700BF70A20020DC
:1038480010B5044C0449204630F0FAFE034B1C60C6
:1038580010BD00BFFC0A002050E9040064A200204B
:1038680008B50023074A1370074A1360074A136014
:103878004FF400410648FFF777FFFFF7E1FF00F03C
:1038880065F908BDA804032070A2002074A20020D6
:10389800274F030008B50146014831F05AFB08BD1F
:1038A800FC0A002008B5024830F0AEFF08BD00BF92
:1038B800FC0A002008B50146024B186831F04FFB9E
:1038C80008BD00BF64A2002008B5024831F04BFBD8
:1038D80008BD00BFFC0A002010B582B000220023FA
:1038E800CDE90023264B187808B902B010BD684608
:1038F80031F051FB044668B1224BD3E8EF1F013980
:10390800C3E8E21F002AF8D12046FFF7E1FE20466F
:10391800FFF7D0FFFFF78AFF58B91B4A13685168B1
:1039280013F57A7341F1000113605160FFF7CCFF82
:10393800DBE749F076FC4A0142EAD06243011B1AF0
:1039480062EB0102920042EA93729B001B1842EB61
:103958000102D20042EA5372C3F3103343EA4243EE
:10396800D20B0948016840685B1A62EB000240F21A
:10397800E9318B4272F10002CFD3FFF73BFFCCE76E
:10398800A704032074A20020E81400200F4B1B7822
:1039980003B1704710B500210120FFF711FE0C4C50
:1039A80000E010340B4B9C4208D263685B79002B13
:1039B800F7D023689B6820469847F2E7FFF78CFF0B
:1039C8000028FBD1014B01221A7010BDA804032066
:1039D80010E0040020E0040010B582B0194BD3E8D1
:1039E800EF2F511CC3E8E01F0028F8D1164B1B78B5
:1039F80063B9164B1B68BBB1C2B1092A14D114486C
:103A080049F08BFC13482EF017FE0DE04FF0200311
:103A1800EFF3118483F31288BFF36F8FFFF75CFF16
:103A280084F31188BFF36F8F02B010BD002200230A
:103A3800CDE900234FF40042002305482FF064FA33
:103A4800F2E700BF74A20020A80403206CA20020A3
:103A5800F0140020B00D002010B50446044B1B687C
:103A68009847A0602146034831F099FA10BD00BF7D
:103A780030010020FC0A00202DE9F0410021084611
:103A8800FFF79EFD804650B140F26766002749F077
:103A980035FF154B1858FFF7DBFD002515E04FF0F3
:103AA800FF364FF0FF37F2E74046FFF757FD8046F5
:103AB80070B94FF0FF364FF0FF3709E02C46324619
:103AC8003B460A482EF0E0FD2546B8F1000FEBD141
:103AD800FFF702FF04460028F6D1002DEED00021A2
:103AE8000846FFF723FDEAE708000000B00D0020B4
:103AF800014800EB81007047400B00200248034B4F
:103B0800C01AC008704700BF10E0040060DE04005F
:103B180010B50C46FFF7F2FFA04203D9024B53F849
:103B2800340010BD0020FCE760DE040010B50C4630
:103B3800FFF7E4FFA04204D9034B03EBC403187951
:103B480010BD0020FCE700BF60DE040010B50024B3
:103B580010E021460020FFF7E9FF0A4A52F8243016
:103B680023F0070342F8243000F00700034342F82B
:103B780024300134044B054A9B1AB4EBD30FE8D325
:103B880010BD00BF400B002010E0040060DE040000
:103B98002DE9F8430D4616469846002812DBC4B2B4
:103BA8000023204631F035FA074610B1404500D9C8
:103BB80047463B463246E9B2204631F00AFA3846D3
:103BC800BDE8F8830A4B0B4AA3EB02094FEA19191F
:103BD8000024274609E04346324629462046FFF797
:103BE800D7FF874238BF074601344C45F3D3E6E791
:103BF80020E0040010E0040038B504460D461146E4
:103C0800084BC31A1B110133426813714368997139
:103C180031F03BFA63681D60636801225A71FFF74F
:103C2800B5FD38BD10E0040000B589B005920693D3
:103C38000023079362B1074A0C9B02930B9B0193E5
:103C48000A9B009305ABFFF73FF909B05DF804FB49
:103C58000022F1E7E95003002DE9F04F8BB004AFE3
:103C680005461E468846C1F34A24002C00F08F8082
:103C780091460022FA603A617A6104230293FB18A4
:103C880001930A23009307F10C0321464846FFF7E6
:103C98001BF9B0F5006F5ED3464B1B6813F0060F97
:103CA80000F08480D9F804106D4600233B7302238A
:103CB8007B738AB004AC14F1100221D012201AB11F
:103CC800042801DD3C4B636100233B7002237B70B9
:103CD800CAB10346082800DDA1610C2B02DD40F2C1
:103CE800FF73E36104F12003002101290BD801F1DE
:103CF80018063E4416F8186C03F8016B0131F4E716
:103D08006FF00040DBE7112822DD122342B10421C5
:103D1800397300217973B9730121F973F868206147
:103D280000216FF300016FF341016FF382016FF31C
:103D3800C501022060F38811C3F30A0363F353211A
:103D48000023C1F313011B4831F04AFAAD462DE0B8
:103D58006FF01B03DAE760F35328C0F30A0A0AEB93
:103D68001850173020F007008008FFF793FD8346AE
:103D7800B0B104230293FB1801930A23009353461E
:103D880000F1100221464846FFF74EFF08E004EB19
:103D98001154173424F00704A008FFF77BFD83466D
:103DA800334642462946584631F0B0F91C37BD46DD
:103DB800BDE8F08F840B002074E904000EB400B550
:103DC80082B0014603AB53F8042B0193034803F078
:103DD8000BFF02B05DF804EB03B070470F5303000C
:103DE80030B585B011F0440F05D01A4B1C6834B9B2
:103DF800002005B030BD1849FFF7E0FFF9E7174B81
:103E08001968B2FBF1F1B1FBF4FC154AA2FB0C32C4
:103E1800D20A4FF4616E0EFB12CE124BA3FB0E5367
:103E28005B0904FB1C114FF47A7C0CFB01F1B1FB1C
:103E3800F4F504FB15110CFB01F1B1FBF4F102914F
:103E48000195C3EB0311AEEB810100910649FFF721
:103E5800B5FFCEE780A20020B4E904007CA20020D0
:103E6800C5B3A29189888888C0E9040061B108B502
:103E78002AB1064A52F8232012B9054A00E0044A3A
:103E88000449FFF79BFF08BD704700BF50EA0400D4
:103E9800DCE904004C4105002DE9F04105461746D0
:103EA800069EDDF81C8081B900242EB132461149E6
:103EB8002846FFF783FF0444B8F1000F14D06FB110
:103EC800099B042B13D00C4909E00C4B099A53F8B1
:103ED80022200B49FFF772FF0446E6E706494246EF
:103EE8002846FFF76BFF04442046BDE8F0810549EA
:103EF800F5E700BFF8E90400E8E9040064EA040013
:103F0800F0E90400E4E904002DE9F04F87B0054624
:103F18000C46049205939DF84C7001F0020B01F0D9
:103F2800010AC1F3C00801F4807931F03EF818B3F2
:103F3800024616492846FFF741FF0646BBF1000F27
:103F48001CD13A465146284631F09DF9B9F1000F87
:103F580001D0002311930397129B0293119B0193A5
:103F6800109B00930023049A41462846FFF794FFCC
:103F7800304407B0BDE8F08F0026DFE7059A2146F8
:103F88002846FFF72DFF0644DBE700BFFCE90400E5
:103F980011F0100F0BD108B511F0200F03D0044910
:103FA800FFF70CFF08BD0349FFF708FFFAE7704762
:103FB800C4F4040000EA04002DE9F04105460F4668
:103FC800164698460699FFF7E3FF0024444505DAAC
:103FD80024492846FFF7F2FE0134F7E7002409E0F8
:103FE80020492846FFF7EAFE0BE01F492846FFF75D
:103FF800E5FE01340F2C0CDC002C02DD14F0070F59
:10400800EED0B442F1D23A5D18492846FFF7D6FE01
:10401800EFE717492846FFF7D1FE002409E01149C8
:104028002846FFF7CBFE0BE012492846FFF7C6FEED
:1040380001340F2C13DC002C02DD14F0070FEED036
:10404800B44207D23A5D0C4B9B5C13F0970FEBD14F
:104058002E22E9E703492846FFF7B0FEE8E7BDE866
:10406800F08100BFF4E90400D42A050004EA040042
:104078000CEA04006CF70400BEA405002DE9F04129
:1040880084B004469DF82C500C9F0E9E95B9012BC8
:104098001ED019484FF0000827B13B462246174961
:1040A80030F00CF9C6B905BB204631F01FF904B051
:1040B800BDE8F08103950A980290019300920B469F
:1040C80000220F992046FFF71FFF80460C48E3E7C0
:1040D8000B484FF00008DFE70F9B0093434632463A
:1040E8000D99204631F0E7F8DDE72A460F9920467A
:1040F80031F0D5F8D8E700BF3F530300F17B00004B
:104108000F5303002DE9F04387B006460C4690464E
:10411800D1F808900F88C7F382170878C0F3C20057
:104128004B6833B11249591A41F38F0100291ADA41
:104138000023214651F8105BC5F34A256288C2F373
:104148000B12481905B90021CDF814800492039088
:10415800029101970022009249463046FFF78EFFF0
:1041680007B0BDE8F083FFF7D3FC0346E1E700BFE3
:10417800400B002070B582B00446056842F20F7308
:104188008B4228BF0B460E4A052168462EF0BCFF1D
:10419800064663685B6804220A49284631F066F8D7
:1041A80063685B6832466946284631F05FF86368A1
:1041B8005B6817220449284631F058F802B070BDF0
:1041C800140B050028EA040010EA0400074B01223A
:1041D8001A6004E04008054A13685B001360044B4A
:1041E8009842F7D8034B1860704700BF7CA20020A4
:1041F80040420F0080A20020014B0360002070475E
:1042080078EA04008446002300E00133074A126874
:104218009A4208DD1A010649096801EB03108A5C15
:104228006245F2D100E00020704700BF78EA040040
:104238003401002038B50C4B1B687BB10C46FFF7E6
:10424800E1FF054668B1C06828B148F09BFA10B193
:104258002560002038BD6FF01200FBE76FF00C00FE
:10426800F8E76FF00100F5E734010020F8B50746DC
:10427800FCF76EFA06464FF0FF324FF0FF33114855
:104288002EF0DAF8104B1C689C4206D1002404E09A
:104298000D4B5B689C4213D0246864B1A56828461E
:1042A800FCF756FAB042F3D132462946384649F06F
:1042B80053FA0028ECD103482EF042F92046F8BD05
:1042C8000024EAE7800C00203801002010B50446DD
:1042D8004FF0FF324FF0FF3318482EF0ADF884B19D
:1042E800A06870B1FFF7C2FFC8B9154B5A682360C0
:1042F800626014605C60002410482EF021F92046AA
:1043080010BD104B1B6813F0070F02D16FF0150496
:10431800F2E70D4A01210B4830F040FFF6E7094B60
:104328001B6813F0070F02D16FF01504E4E7074A82
:104338000121044830F032FFF6E700BF800C00206E
:10434800380100204C0B0020DCEA0400F8EA0400E5
:1043580008B5034B034A082131F0EAFC002008BDE8
:1043680024EB04002CEB04002DE9F04182B0064652
:1043780015460023019301AA0A21A86801F0AEFDA1
:10438800019C9CB98046C3B2042B17D8686830F0EA
:1043980058FE071E1DDB3AB25FFA88F30021084673
:1043A80030F069FE204602B0BDE8F08123460C4A91
:1043B8000121304631F0BCFC019CF3E7C3B2094A45
:1043C8000121304631F0B4FC304631F0CFFC0124F5
:1043D800E8E76B68044A0121304631F0A9FCDAE7C6
:1043E80040EB040068EB040080EB040030B583B0B8
:1043F800054613460022019201AA0A21586801F0D5
:104408006DFD019C24B931F030F8204603B030BD71
:104418002346034A0121284631F08AFC019CF4E72F
:10442800A0EB040010B504460EF062F80346084AF3
:104438000821204631F07CFC064A0821204631F04C
:1044480077FC214604482EF077FB002010BD00BF02
:104458004CEC04006CEC04006544000070B58EB0B0
:1044680004460D46D0F89C6048F09DFA024649F093
:1044780045FA254B1B589C4230D0244B002A2FD09C
:1044880001920094224A0821284631F051FC94F9FF
:104498000E10D4E90A23CDE902230091237B1D4A9B
:1044A8000821284631F044FC202205A920462DF099
:1044B80051FB0346626E0092174A0821284631F0E4
:1044C80037FC0DA9204648F0B2FA034650B1134A0A
:1044D8000821284631F02CFC0EB070BD104BCDE7FA
:1044E800104ACDE70D9AB11A642301FB03F3B3FB1D
:1044F800F6F3039302960191009233460A4A082183
:10450800284631F015FCE7E708000000F4E904004C
:104518007CEC040088EC0400B4EC0400CCEC04004F
:104528007804050078EC0400FCEC0400F0B589B0D0
:1045380004460D46D0F89C6007A948F078FAC8B937
:10454800204648F030FA079AB11A642301FB03F3B6
:10455800B3FBF6F30746A0B10593049603910292C4
:10456800019600972346084A0821284631F0E0FBC7
:1045780009B0F0BD0346054A0821284631F0D8FBAA
:10458800F6E7034FE8E700BF34ED0400CCEC040085
:1045980078EC040070B592B0054600240A940B9498
:1045A8000C940D940E940F94109411944FF02033A2
:1045B8000A930B930C930D930E930F93ADF8403021
:1045C800014614482EF0B8FA14B1002012B070BD9C
:1045D800114E06EBC42609AA4FF40061304648F094
:1045E80015FA0999C1F50060642200FB02F2D20AAB
:1045F80006924FF4006305930490039102930AAB6B
:10460800019300943346054A0821284631F090FB6F
:104618000134D9E735450000D045032078ED040082
:1046280010B5044636F046FC0346034A08212046E6
:1046380031F07EFB002010BDC4ED040010B5034628
:104648000C461146006808B1027822B9024A204691
:104658002EF05AFD204610BDA0EF040070B586B0BC
:10466800054605A82CF038FF00EB8000059E06EBF8
:104678008006124A0821284631F05AFB059C06E0BC
:104688000F4B104A0821284631F052FB1434B4422B
:1046980011D2142269462046FFF7D0FF03460A4A82
:1046A8000821284631F044FB204648F06BF80028E2
:1046B800E6D0064BE5E7002006B070BDBCEF04006D
:1046C800B0EF0400D0EF0400C8EF0400A8EF040026
:1046D80008B5102A12D0202A13D0082A06D00A4A70
:1046E800082131F025FB6FF0150006E00B78DBB2EE
:1046F800064A082131F01CFB002008BD0B889BB23C
:10470800F6E70B68F4E700BF50F0040068F0040017
:1047180008B5029B102A0ED0202A10D0082A06D0ED
:10472800084A082131F004FB6FF0150002E0DBB203
:104738000B70002008BD9BB20B800020FAE70B60CD
:104748000020F7E750F004008B1E022B3AD82DE921
:10475800F04182B005460C461646102200217068CA
:104768002EF06EFD8046022C1FD820273B46174AA4
:104778000821284631F0DCFA032C1DD9102200212B
:10478800F0682EF05DFD04460346114A08212846CC
:1047980031F0CEFA0094002301933A464146284668
:1047A800FFF7B6FF02B0BDE8F0810A220021B06829
:1047B8002EF046FDC7B2D9E73A4641462846FFF7EC
:1047C80087FFEFE76FF01500704700BF7CF004002B
:1047D80094F0040038B504460D4611B10F4B1B7810
:1047E8005BB90E4A137883F00103137063B9294645
:1047F800204631F0D7FA002038BD094A012131F0AE
:1048080097FA6FF00F00F7E7064A0821204631F0C3
:104818008FFA024B01221A70E9E700BFA9040320AE
:10482800A8F00400E4F00400F8B507460E46154663
:104838000023244A1370244A1360244A13600CE0AE
:1048480000231C4402222249204648F085FF98B9DB
:104858001C4B01221A700435013E012E1ED96C68CA
:1048680002221C49204648F077FF0028E8D1A378A7
:10487800002BE6D00123E4E716492046FBF756FF54
:1048880058B123782D2B09D163783BB12346124ABE
:104898000821384631F04CFADDE70435002211468C
:1048A80068682EF05DFC0D4B1860002211466868A0
:1048B8002EF056FC0A4B18600A493846FFF78AFF63
:1048C8000020F8BDAB04032088A200208CA20020A1
:1048D80014F1040010F1040018F1040094A200205F
:1048E80090A20020F148000038B50546554B1B78CA
:1048F800182B01D0002305E00B78112B32D00023B0
:1049080000E0013302F1FF3C9E469C4509D9CC5C8E
:10491800182CF6D18E449EF801001128F1D10123FC
:1049280000E00023F3B911F80C20464B1A700A78FE
:10493800A2F13003DBB2092B09D9A2F16103DBB282
:10494800052B04D9A2F14103DBB2052B05D83E495A
:104958000B683E48C25401330B603B4B1B68022B6B
:104968005ED038BD3A4B1B683A4A0821284631F0D8
:10497800DFF900212846FFF72DFF374B1B78002B66
:10498800EFD113E0354D2A681068030A03F47F431A
:1049980043EA1063040204F47F04234343EA0063F8
:1049A80042F8043B2A600439294B1960284B1968DE
:1049B8000429E7DC11F0030F0FD1284B18680268AF
:1049C800130A03F47F4343EA1263110201F47F01DF
:1049D8000B4343EA02630360C3E74B4201F0030160
:1049E80003F0030358BF594202290FD00329B8D155
:1049F8001A4B19680B68C3F3074203F47F4002435C
:104A08001B0403F47F0313430B60AAE7134B1968D5
:104A18000B68C3F307221B029BB213430B60A0E78A
:104A28001022002109482EF00BFC0D4A136803F8E8
:104A3800010B1360064A136801331360024B00220E
:104A48001A608EE7AA04032088A2002084A200200E
:104A58008CA2002030F10400AB04032090A20020B7
:104A680094A200202DE9F04385B080460F461546F4
:104A78001C46DE08002D5DD04FF0000C08E01CF845
:104A880007300CF110010DEB010C0CF8103C9446AA
:104A9800B54240D30CEB0602102A3CD8102C0DD09E
:104AA800202C1BD0082CEAD0234A0821404631F09C
:104AB8003FF96FF0150005B0BDE8F0833CF807300A
:104AC8000CF11001694401F8103CC3F307230CF101
:104AD80011010DEB010C0CF8103CD8E75CF807301D
:104AE8000CF11001694401F8103CC3F307200CF1E4
:104AF8001101694401F8100CC3F307400CF11201CD
:104B0800694401F8100C1B0E0CF113010DEB010C9C
:104B18000CF8103CBBE7A946102D28BF4FF0100930
:104B28004B466A463946404600F0C6FF1037A5EBAB
:104B380009059FE70020BEE750F004002DE9F8437F
:104B480006460D461446414B01221A604FF0FF37C6
:104B58004FF02009B8463E4A21462846FDF7D4FDC5
:104B6800B0F1FF3F54D0732820D0772837D0612880
:104B780003D06FF01500BDE8F88310220021354BF3
:104B880018682EF05DFB07460028E4D148F0B6FE11
:104B9800314B1B58162BDED12E4B1B682F4A012197
:104BA800304631F0C5F86FF01500E4E700221146F1
:104BB800284B18682EF044FB80460028CBD148F0DB
:104BC8009DFE254B1B58162BC5D1224B1B68244A2A
:104BD8000121304631F0ACF86FF01500CBE7002228
:104BE80011461C4B18682EF02BFB81460028B2D1C9
:104BF80048F084FE184B1B58162BACD1154B1B687C
:104C0800184A0121304631F093F86FF01500B2E7E9
:104C1800B7F1FF3F0AD0B8F1FF3F0FD05FFA89F331
:104C2800424639463046FFF71DFFA4E70E4A0121E8
:104C3800304631F07DF86FF015009CE70B4A0121F2
:104C4800304631F075F86FF0150094E72401002024
:104C580088F1040058A200200C0000004CF1040068
:104C680060F1040074F1040090F10400B0F1040054
:104C780010B50246034653F8584B4021C1640363FC
:104C88000023C3638363436383644364036400F161
:104C980050010820D0621161D3619361536193621E
:104CA80053621362C2F8D0300349204630F003FC47
:104CB800204630F01AFC10BD6B5603002DE9F04376
:104CC80083B080460F464FF000090BE06FF05704A1
:104CD8004FF001092146284630F072F8002C32D0F6
:104CE800B44230D107F13005FA6C01A9284630F0FA
:104CF80046F8064670B10199D8F808301B69002BB0
:104D0800E4D002464046984704460028E2D04FF0D7
:104D18000109DFE7114B1B6813F0060F0AD1D8F819
:104D280008301B6963B101220DF103014046984721
:104D38000446D3E70A4A0221084830F02FFAEEE782
:104D48006FF05704CCE7B9F1000F03D07B68B9685E
:104D58000020984703B0BDE8F08300BFB40B0020E3
:104D680074F3040000B583B0094847F00BFD60B147
:104D7800042300930123074A12680549064800F0F6
:104D8800A1FD002003B05DF804FB6FF01200F9E705
:104D98008CDA04008CF3040078E00400836819714D
:104DA800022900D0704710B5044683689B6B03B195
:104DB80010BD30F070FCA368D3F8683213F4805F3C
:104DC80003D1204631F004FBF2E7054B054A0321E5
:104DD800204631F060FA0021204630F011FDF0E75E
:104DE80038F404004C41050010B5044630F0EBFCE3
:104DF800A3685B6B13B1014620469847A36800225D
:104E0800C3F8102348F07AFD014B185802F0E0FA75
:104E1800080000002DE9F0410646884617464FF481
:104E280046720021806848F058FDB36832681A60FD
:104E3800304630F0B3FDB06800F53F7047F0E0FF52
:104E4800002517E0B0682C0104F51A7420440430DA
:104E580048F020FCB068031905EB850C4FEA8C0C70
:104E68000CF52A7C6044043300220121043048F008
:104E7800DEFB0135032DE5DDB36900221A6001214F
:104E8800304630F0EDFCB36850225A85B3681822DA
:104E98001A85B4682068B0B1FBF75AFC80B284F870
:104EA8002C006FF38207B368C3F8647270680368F4
:104EB8001C683346054A4146A04710B9B368012229
:104EC8001A71BDE8F0810020E9E700BF8B590300A3
:104ED80008B58368D3F8643213F0200F00D108BDF9
:104EE8000249406930F05FFDF9E700BF00E10400C6
:104EF80010B504468168083101F0E4FAA168034A54
:104F08000831204631F025FC10BD00BF7CF40400B8
:104F180009B10020704710B5044683689B68054AAC
:104F2800012131F0B8F92046FFF7E2FF6FF01500D4
:104F380010BD00BF8CF40400F8B50446164680681E
:104F4800426962B10D46027E8AB3437EFF2B25D0AB
:104F5800AA4226D81344AB4248D2002122E0ABB182
:104F68005A68002A44D0C1688A420AD000F1080E63
:104F78009C46BCE80F00AEE80F00DCF80030CEF825
:104F880000302046FFF7B4FF01272DE01A4A01211F
:104F9800204631F080F96FF0070725E04FF6FF73E0
:104FA800D6E700212046FFF7B3FF0746E0B9012105
:104FB800204630F06DFCA06800F53F702DF0C0FA77
:104FC800A3685B6932462946204698470746A06889
:104FD80000F53F704FF0FF324FF0FF332DF02CFA01
:104FE8000021204630F054FC3846F8BD0121D9E7AD
:104FF8006FF00707F8E700BFA8F4040091B110B5F7
:1050080004460846D36803B910BD204631F0A0F81D
:10501800204601F05FF8044A0121204631F03BF9AF
:105028000020F1E701207047C8F404002DE9F0479B
:10503800A6B00646542200210CA848F04EFC0023D6
:105048000693059304934FF0FF330393B36803F17A
:10505800460A304631F07CF8304631F00BF8C8B1DA
:10506800B36800279F60DF601F615F619F61304602
:1050780030F090FFB168B1F840204631304630F04A
:10508800A9FC304631F092FD0897B8460CACB946F9
:105098003D465BE06C49706930F085FCE0E700282C
:1050A8006AD00346694A0121304631F0F4F86FF0BE
:1050B8000700A1E0206801F027FA00285FD0089BCC
:1050C8005BB1B468083407AD0FCD0FC42B682360FB
:1050D8003046FFF70DFF01208EE05D4A0121304682
:1050E80031F0D9F86FF0070086E02268294630468B
:1050F80031F081FD022868D0032843D0069B013394
:1051080006934FF0010921E021AA2168384630F0C2
:10511800ECFE054639E0069B93B9B368DB6923B119
:10512800DB6813B14FF0010848E04A4B00930C9B31
:10513800494A0121304631F0AEF84FF001083DE010
:105148004FF001083AE0069B01330693049B012BBC
:105158003BD0069B132B38D8039B002B35D002235A
:105168005246214604A800F019FED4F804A0049B76
:10517800002B63D0012B92D0069B002B9AD1069B63
:10518800002BB2D1B8F1000FBED00434039B013B11
:105198000393002DBFD02A4649463046FFF72EFF1D
:1051A80000284ED0B16803AB019305AB009306AB62
:1051B80007AA0831284630F08CFA2F46039B002BAB
:1051C800C1D1049B022BC1D1BDE7069B132B02D989
:1051D800049B022B13D0B9F1000F19D117B17B7CB6
:1051E800FE2B20D0059907AB0CAA02EB810206988A
:1051F800411A3046FFF7A0FE26B0BDE8F087174BEE
:10520800174A0121304631F046F86FF00700F3E7FE
:10521800304631F003FDB268142346320CA906A8C3
:1052280000F0BCFDDAE7069B26AA02EB830252F8DF
:10523800682C002AD6D001330693D3E76FF0070015
:10524800DAE76FF00700D7E7C4F40400F8F40400C5
:10525800A8F4040014F504000CF5040028F5040073
:105268002CA00500F0B583B004461D468068B0F850
:105278004030FF2B46D00F461646B0F8422000F1CA
:10528800460100F5A37048F001FBA368B3F842207B
:105298001344002283F84621A268142302F5A3725E
:1052A8003168284600F07AFD2B68142B2DD8326817
:1052B800002142F82310A368B3F84220013A1344AE
:1052C80093F84630134AD35C03F008032C6884B182
:1052D80013B9012C0DD0013C00200190099B0093CB
:1052E800089B3268214630F023FE386038B101202F
:1052F80009E00023089A13603B60012003E034B9F9
:10530800012000E0002003B0F0BD0020FBE70020F2
:10531800F9E700BFBEA40500F8B504460E461F46CF
:1053280072B31046FBF714FA85B2A2680832394600
:10533800304600F059FD066826B33046FBF708FAF8
:1053480080B2A84220D1A268B2F84230134493F840
:1053580046301649CB5C13F0080F21D1D2F86432DD
:1053680013F0010F17D00021204630F0C1FA202198
:10537800204630F0DBFF0121204630F0B9FAF8BDB5
:105388000025D2E70020DCE7421B92B271192046C3
:1053980030F0E8FFD7E72021204630F0C7FFEEE7DE
:1053A8000121204630F081FEE9E700BFBEA40500D8
:1053B8002DE9F04182B0064649B30F46023294B255
:1053C800D0F80880B8F82A50023D95FBF4F5ADB244
:1053D8000846FBF7BDF980B2241AA4B2B8F83030F9
:1053E8005A1CA8F83020B3FBF5F205FB12339BB228
:1053F8008BB900970B4B0C4A0621304630F04BFF17
:105408002146304600F022FE02B0BDE8F0818368F4
:1054180000221A86F8E73B46044A0621304630F057
:105428003AFFEDE74CF5040050F504004C41050047
:105438002DE9F84F074689461D460A9EBDF82CB04F
:10544800904652B11046FBF783F91FFA80FA5A4684
:1054580000213846FFF7ACFF08E04FF0000AF6E7F6
:105468005A4621683846FFF7A3FF013EA6B1BA683D
:1054780008322946484600F0B7FC04460135B8F121
:10548800000FEDD000680028EAD05246414648F0A7
:1054980063F90028E4D0E9E70449786930F083FA31
:1054A800384630F095FFBDE8F88F00BFC4F404001B
:1054B80010B50446013916290FD8DFE801F00C0FA2
:1054C8001226292C0E0E0E0E2F320E4C0E500E0EDA
:1054D8000E0E540E610030F032FE10BD30F043FE67
:1054E800FBE730F035FE204630F0C4FD40B1012125
:1054F800204630F0E5F902212046FFF74FFCECE7A3
:105508002349606930F04FFAF1E730F02FFFE4E704
:1055180030F01EFEE1E730F031FEDEE730F03BFE12
:10552800DBE78368D3F8643213F0200F09D1A3684E
:10553800D3F8643213F0200F08D1204630F048FF2A
:10554800CBE71449406930F02EFAF0E71249606958
:1055580030F029FAF1E7002130F038FBBDE70121EE
:1055680030F034FBB9E730F0EAFD204630F093F82C
:105578000121204630F0A4F92046FFF7A9FCACE74A
:1055880000F050FE0121204630F09AF9A5E700BF4F
:10559800C4F4040008E1040010E1040070B586B00A
:1055A800044600230593A3689D6BF5B16068036802
:1055B8001E6905AB10226946B047059B9BB10121C6
:1055C800204630F065F9059A69462046A84700212B
:1055D800204630F05DF9A3689B6B002BE3D10221D4
:1055E8002046FFF7DBFB06B070BD606803681D69E5
:1055F80005AB01220DF11301A847059B002BF2D042
:105608009DF813109DF91330002BCCDBA268537959
:10561800032B00F25081DFE813F00400B800CA0041
:105628004B01204630F07FF8002841D19DF8131037
:105638001B2953D81B2900F28E8001A353F821F0AF
:10564800AF5500005F5700005F5700005F5700002C
:105658005F5700005F5700005F5700005F5700006A
:10566800395700001B5700005F5700005F570000C4
:105678005F5700005F5700005F5700005F5700004A
:105688005F5700005F5700005F5700005F5700003A
:105698005F5700005F5700005F5700005F5700002A
:1056A8005F5700005F5700005F5700001357000066
:1056B800A568B5F840305BB9204630F082F97F49DB
:1056C800606930F070F902212046FFF767FB6AE74E
:1056D8002046FFF7ABFCC5F81403F4E77F293AD15D
:1056E800A368D3F8643213F0020F3FF45CAF0121D2
:1056F800204630F0E5F8A368D3F8643213F0080FB9
:1057080025D0204630F051FE4DE7A36801225A719A
:1057180049E7A368D3F8643213F0020F3FF443AFAC
:105728000121204630F0CCF8204630F0F7F93AE76E
:10573800A368D3F8643213F0020F3FF434AF0121A9
:10574800204630F0BDF8204630F02FFE2BE72046EB
:1057580030F00CFE27E75A4B5B5C13F0970F0AD129
:10576800A368D3F8643213F0020F3FF41CAF20464D
:10577800FFF79EFE17E70121204630F0A1F89DF8BB
:105788001310204630F0D2FD0DE75B2908D0D2F87F
:10579800643213F0020F06D1A36800225A7102E79F
:1057A80002235371FFE6204630F001FAF4E70023A4
:1057B8005371A368D3F8642212F0020F3FF4F3AEDA
:1057C80031391B293FF6EFAE01A252F821F000BF94
:1057D80079580000855800009F5800006D58000057
:1057E800AF550000AF550000AF550000AF550000A1
:1057F800AF550000AF550000AF550000AF55000091
:10580800AF550000AF550000AF550000AF55000080
:1058180049580000535800005D58000065580000C2
:10582800AF55000071580000AF5500007D580000CA
:10583800AF550000AF550000AF5500008958000073
:105848000121204630F0C2F9ADE60021204630F0B3
:10585800BDF9A8E6204630F091FCA4E6204630F0D9
:1058680082FCA0E603225A71204630F071FC9AE6C9
:1058780003225A71204630F062FC94E603225A71E2
:10588800A368D3F8641201F0010181F001012046F8
:1058980030F02EF887E603225A71A368D3F86432F1
:1058A80013F0020F3FF47FAE204630F05FFD7AE63A
:1058B8000023537177E60023537174E6C4F404009F
:1058C800BEA4050070B588B004468068D0F81003FF
:1058D80010BB1D462046FFF79DFA064610B130461C
:1058E80008B070BDA06AE16A00220023CDE9062352
:1058F800002304930E2303930C9B029301950094B9
:10590800074B4FF4006247F05FF8A368C3F8100331
:10591800616A2CF00DF9E2E76FF07706DFE700BF68
:10592800A959000083681A79012A34D110B50446B0
:10593800D3F8682212F4804F04D0D3F8642212F00E
:10594800040F1DD0A06800F53F704FF0FF324FF0F4
:10595800FF332CF071FD0821204600F039FC206847
:1059680018B1FAF7F5FE80B280B902212046FFF798
:1059780015FAA06800F53F702CF0E2FD002010BD7C
:10598800DA6B0146C06930F05DFEDBE70349606908
:1059980030F009F8E9E76FF08500704730ED040052
:1059A80038B504461546003918BF01212FF040FFCD
:1059B800A368DD63606803689B680021984700B1AD
:1059C80038BD2046FFF7AEFF0028F9D11AE0A068DD
:1059D80000F53F704FF0FF324FF0FF332CF02CFDF5
:1059E8002B461E4A0121204630F055FCA06800F5E0
:1059F8003F702CF0A5FDE3E79847A06800F53F70DD
:105A08002CF09EFDA06800F52B704FF0FF324FF090
:105A1800FF3303212DF0BAFA05460028D7D1A06834
:105A280000F53F704FF0FF324FF0FF332CF004FDCC
:105A38000B4A022120462FF08BFF0A4A00212046FC
:105A48002FF086FF084A012120462FF081FF606869
:105A580003685B69002BCFD1CFE700BF58F504007E
:105A6800F14D0000875C03007557030010B504462C
:105A78000C4A082130F05CF90B4A0821204630F026
:105A880057F90A4A0821204630F052F9084A0821F5
:105A9800204630F04DF9074A0021204630F059FEE3
:105AA800002010BD70F50400B0F5040010F60400E5
:105AB80064F6040000F70400F8B5054617461E46CC
:105AC8000B46294A082130F033F900240BE0274A15
